{
  "_format": "hh-sol-artifact-1",
  "contractName": "EventContract",
  "sourceName": "contracts/EventContract.sol",
  "abi": [
    {
      "inputs": [
        {
          "internalType": "string",
          "name": "_eventTitle",
          "type": "string"
        },
        {
          "internalType": "string",
          "name": "_eventDescription",
          "type": "string"
        },
        {
          "internalType": "address",
          "name": "_organizer",
          "type": "address"
        },
        {
          "internalType": "uint256",
          "name": "_ticketPrice",
          "type": "uint256"
        },
        {
          "internalType": "uint256",
          "name": "_maxTickets",
          "type": "uint256"
        },
        {
          "internalType": "string",
          "name": "_eventURI",
          "type": "string"
        },
        {
          "internalType": "uint256",
          "name": "_eventStartTime",
          "type": "uint256"
        },
        {
          "internalType": "uint256",
          "name": "_eventEndTime",
          "type": "uint256"
        },
        {
          "internalType": "string",
          "name": "_venue",
          "type": "string"
        }
      ],
      "stateMutability": "nonpayable",
      "type": "constructor"
    },
    {
      "inputs": [
        {
          "internalType": "address",
          "name": "owner",
          "type": "address"
        }
      ],
      "name": "OwnableInvalidOwner",
      "type": "error"
    },
    {
      "inputs": [
        {
          "internalType": "address",
          "name": "account",
          "type": "address"
        }
      ],
      "name": "OwnableUnauthorizedAccount",
      "type": "error"
    },
    {
      "inputs": [],
      "name": "ReentrancyGuardReentrantCall",
      "type": "error"
    },
    {
      "anonymous": false,
      "inputs": [
        {
          "indexed": false,
          "internalType": "uint256[]",
          "name": "categoryIds",
          "type": "uint256[]"
        },
        {
          "indexed": false,
          "internalType": "uint256",
          "name": "totalAdded",
          "type": "uint256"
        }
      ],
      "name": "CategoriesAdded",
      "type": "event"
    },
    {
      "anonymous": false,
      "inputs": [
        {
          "indexed": true,
          "internalType": "uint256",
          "name": "categoryId",
          "type": "uint256"
        },
        {
          "indexed": false,
          "internalType": "string",
          "name": "name",
          "type": "string"
        },
        {
          "indexed": false,
          "internalType": "uint256",
          "name": "price",
          "type": "uint256"
        },
        {
          "indexed": false,
          "internalType": "string",
          "name": "categoryURI",
          "type": "string"
        }
      ],
      "name": "CategoryAdded",
      "type": "event"
    },
    {
      "anonymous": false,
      "inputs": [],
      "name": "EventDeactivated",
      "type": "event"
    },
    {
      "anonymous": false,
      "inputs": [],
      "name": "EventUpdated",
      "type": "event"
    },
    {
      "anonymous": false,
      "inputs": [
        {
          "indexed": true,
          "internalType": "address",
          "name": "previousOwner",
          "type": "address"
        },
        {
          "indexed": true,
          "internalType": "address",
          "name": "newOwner",
          "type": "address"
        }
      ],
      "name": "OwnershipTransferred",
      "type": "event"
    },
    {
      "anonymous": false,
      "inputs": [
        {
          "indexed": true,
          "internalType": "address",
          "name": "buyer",
          "type": "address"
        },
        {
          "indexed": false,
          "internalType": "uint256",
          "name": "quantity",
          "type": "uint256"
        },
        {
          "indexed": false,
          "internalType": "uint256",
          "name": "totalPrice",
          "type": "uint256"
        }
      ],
      "name": "TicketPurchased",
      "type": "event"
    },
    {
      "anonymous": false,
      "inputs": [
        {
          "indexed": true,
          "internalType": "address",
          "name": "user",
          "type": "address"
        },
        {
          "indexed": false,
          "internalType": "bool",
          "name": "status",
          "type": "bool"
        }
      ],
      "name": "WhitelistUpdated",
      "type": "event"
    },
    {
      "inputs": [
        {
          "components": [
            {
              "internalType": "string",
              "name": "name",
              "type": "string"
            },
            {
              "internalType": "uint256",
              "name": "price",
              "type": "uint256"
            },
            {
              "internalType": "uint256",
              "name": "maxSupply",
              "type": "uint256"
            },
            {
              "internalType": "string",
              "name": "categoryURI",
              "type": "string"
            }
          ],
          "internalType": "struct EventContract.CategoryInput[]",
          "name": "_categories",
          "type": "tuple[]"
        }
      ],
      "name": "addTicketCategories",
      "outputs": [
        {
          "internalType": "uint256[]",
          "name": "",
          "type": "uint256[]"
        }
      ],
      "stateMutability": "nonpayable",
      "type": "function"
    },
    {
      "inputs": [
        {
          "internalType": "string",
          "name": "_name",
          "type": "string"
        },
        {
          "internalType": "uint256",
          "name": "_price",
          "type": "uint256"
        },
        {
          "internalType": "uint256",
          "name": "_maxSupply",
          "type": "uint256"
        },
        {
          "internalType": "string",
          "name": "_categoryURI",
          "type": "string"
        }
      ],
      "name": "addTicketCategory",
      "outputs": [
        {
          "internalType": "uint256",
          "name": "",
          "type": "uint256"
        }
      ],
      "stateMutability": "nonpayable",
      "type": "function"
    },
    {
      "inputs": [],
      "name": "categoryCount",
      "outputs": [
        {
          "internalType": "uint256",
          "name": "",
          "type": "uint256"
        }
      ],
      "stateMutability": "view",
      "type": "function"
    },
    {
      "inputs": [],
      "name": "createdAt",
      "outputs": [
        {
          "internalType": "uint256",
          "name": "",
          "type": "uint256"
        }
      ],
      "stateMutability": "view",
      "type": "function"
    },
    {
      "inputs": [],
      "name": "deactivateEvent",
      "outputs": [],
      "stateMutability": "nonpayable",
      "type": "function"
    },
    {
      "inputs": [],
      "name": "eventDescription",
      "outputs": [
        {
          "internalType": "string",
          "name": "",
          "type": "string"
        }
      ],
      "stateMutability": "view",
      "type": "function"
    },
    {
      "inputs": [],
      "name": "eventEndTime",
      "outputs": [
        {
          "internalType": "uint256",
          "name": "",
          "type": "uint256"
        }
      ],
      "stateMutability": "view",
      "type": "function"
    },
    {
      "inputs": [],
      "name": "eventStartTime",
      "outputs": [
        {
          "internalType": "uint256",
          "name": "",
          "type": "uint256"
        }
      ],
      "stateMutability": "view",
      "type": "function"
    },
    {
      "inputs": [],
      "name": "eventTitle",
      "outputs": [
        {
          "internalType": "string",
          "name": "",
          "type": "string"
        }
      ],
      "stateMutability": "view",
      "type": "function"
    },
    {
      "inputs": [],
      "name": "eventURI",
      "outputs": [
        {
          "internalType": "string",
          "name": "",
          "type": "string"
        }
      ],
      "stateMutability": "view",
      "type": "function"
    },
    {
      "inputs": [],
      "name": "getAllCategories",
      "outputs": [
        {
          "components": [
            {
              "internalType": "string",
              "name": "name",
              "type": "string"
            },
            {
              "internalType": "uint256",
              "name": "price",
              "type": "uint256"
            },
            {
              "internalType": "uint256",
              "name": "maxSupply",
              "type": "uint256"
            },
            {
              "internalType": "uint256",
              "name": "sold",
              "type": "uint256"
            },
            {
              "internalType": "bool",
              "name": "isActive",
              "type": "bool"
            },
            {
              "internalType": "string",
              "name": "categoryURI",
              "type": "string"
            }
          ],
          "internalType": "struct EventContract.TicketCategory[]",
          "name": "",
          "type": "tuple[]"
        }
      ],
      "stateMutability": "view",
      "type": "function"
    },
    {
      "inputs": [
        {
          "internalType": "uint256",
          "name": "_categoryId",
          "type": "uint256"
        }
      ],
      "name": "getCategoryURI",
      "outputs": [
        {
          "internalType": "string",
          "name": "",
          "type": "string"
        }
      ],
      "stateMutability": "view",
      "type": "function"
    },
    {
      "inputs": [],
      "name": "getEventDetails",
      "outputs": [
        {
          "internalType": "string",
          "name": "title",
          "type": "string"
        },
        {
          "internalType": "string",
          "name": "description",
          "type": "string"
        },
        {
          "internalType": "address",
          "name": "eventOrganizer",
          "type": "address"
        },
        {
          "internalType": "uint256",
          "name": "price",
          "type": "uint256"
        },
        {
          "internalType": "uint256",
          "name": "maxTicketsCount",
          "type": "uint256"
        },
        {
          "internalType": "uint256",
          "name": "ticketsSoldCount",
          "type": "uint256"
        },
        {
          "internalType": "bool",
          "name": "active",
          "type": "bool"
        },
        {
          "internalType": "string",
          "name": "uri",
          "type": "string"
        },
        {
          "internalType": "uint256",
          "name": "creationTime",
          "type": "uint256"
        },
        {
          "internalType": "uint256",
          "name": "startTime",
          "type": "uint256"
        },
        {
          "internalType": "uint256",
          "name": "endTime",
          "type": "uint256"
        },
        {
          "internalType": "string",
          "name": "eventVenue",
          "type": "string"
        }
      ],
      "stateMutability": "view",
      "type": "function"
    },
    {
      "inputs": [
        {
          "internalType": "uint256",
          "name": "_categoryId",
          "type": "uint256"
        }
      ],
      "name": "getTicketCategory",
      "outputs": [
        {
          "components": [
            {
              "internalType": "string",
              "name": "name",
              "type": "string"
            },
            {
              "internalType": "uint256",
              "name": "price",
              "type": "uint256"
            },
            {
              "internalType": "uint256",
              "name": "maxSupply",
              "type": "uint256"
            },
            {
              "internalType": "uint256",
              "name": "sold",
              "type": "uint256"
            },
            {
              "internalType": "bool",
              "name": "isActive",
              "type": "bool"
            },
            {
              "internalType": "string",
              "name": "categoryURI",
              "type": "string"
            }
          ],
          "internalType": "struct EventContract.TicketCategory",
          "name": "",
          "type": "tuple"
        }
      ],
      "stateMutability": "view",
      "type": "function"
    },
    {
      "inputs": [],
      "name": "isActive",
      "outputs": [
        {
          "internalType": "bool",
          "name": "",
          "type": "bool"
        }
      ],
      "stateMutability": "view",
      "type": "function"
    },
    {
      "inputs": [
        {
          "internalType": "uint256",
          "name": "quantity",
          "type": "uint256"
        }
      ],
      "name": "isTicketAvailable",
      "outputs": [
        {
          "internalType": "bool",
          "name": "",
          "type": "bool"
        }
      ],
      "stateMutability": "view",
      "type": "function"
    },
    {
      "inputs": [],
      "name": "maxTickets",
      "outputs": [
        {
          "internalType": "uint256",
          "name": "",
          "type": "uint256"
        }
      ],
      "stateMutability": "view",
      "type": "function"
    },
    {
      "inputs": [],
      "name": "maxTicketsPerWallet",
      "outputs": [
        {
          "internalType": "uint256",
          "name": "",
          "type": "uint256"
        }
      ],
      "stateMutability": "view",
      "type": "function"
    },
    {
      "inputs": [],
      "name": "nftContract",
      "outputs": [
        {
          "internalType": "address",
          "name": "",
          "type": "address"
        }
      ],
      "stateMutability": "view",
      "type": "function"
    },
    {
      "inputs": [],
      "name": "organizer",
      "outputs": [
        {
          "internalType": "address",
          "name": "",
          "type": "address"
        }
      ],
      "stateMutability": "view",
      "type": "function"
    },
    {
      "inputs": [],
      "name": "owner",
      "outputs": [
        {
          "internalType": "address",
          "name": "",
          "type": "address"
        }
      ],
      "stateMutability": "view",
      "type": "function"
    },
    {
      "inputs": [
        {
          "internalType": "address",
          "name": "buyer",
          "type": "address"
        },
        {
          "internalType": "uint256",
          "name": "quantity",
          "type": "uint256"
        },
        {
          "internalType": "uint256",
          "name": "categoryId",
          "type": "uint256"
        }
      ],
      "name": "purchaseTickets",
      "outputs": [],
      "stateMutability": "payable",
      "type": "function"
    },
    {
      "inputs": [],
      "name": "renounceOwnership",
      "outputs": [],
      "stateMutability": "nonpayable",
      "type": "function"
    },
    {
      "inputs": [],
      "name": "salesEndTime",
      "outputs": [
        {
          "internalType": "uint256",
          "name": "",
          "type": "uint256"
        }
      ],
      "stateMutability": "view",
      "type": "function"
    },
    {
      "inputs": [],
      "name": "salesStartTime",
      "outputs": [
        {
          "internalType": "uint256",
          "name": "",
          "type": "uint256"
        }
      ],
      "stateMutability": "view",
      "type": "function"
    },
    {
      "inputs": [
        {
          "internalType": "address",
          "name": "_nftContract",
          "type": "address"
        }
      ],
      "name": "setNFTContract",
      "outputs": [],
      "stateMutability": "nonpayable",
      "type": "function"
    },
    {
      "inputs": [
        {
          "internalType": "uint256",
          "name": "",
          "type": "uint256"
        }
      ],
      "name": "ticketCategories",
      "outputs": [
        {
          "internalType": "string",
          "name": "name",
          "type": "string"
        },
        {
          "internalType": "uint256",
          "name": "price",
          "type": "uint256"
        },
        {
          "internalType": "uint256",
          "name": "maxSupply",
          "type": "uint256"
        },
        {
          "internalType": "uint256",
          "name": "sold",
          "type": "uint256"
        },
        {
          "internalType": "bool",
          "name": "isActive",
          "type": "bool"
        },
        {
          "internalType": "string",
          "name": "categoryURI",
          "type": "string"
        }
      ],
      "stateMutability": "view",
      "type": "function"
    },
    {
      "inputs": [],
      "name": "ticketPrice",
      "outputs": [
        {
          "internalType": "uint256",
          "name": "",
          "type": "uint256"
        }
      ],
      "stateMutability": "view",
      "type": "function"
    },
    {
      "inputs": [],
      "name": "ticketsSold",
      "outputs": [
        {
          "internalType": "uint256",
          "name": "",
          "type": "uint256"
        }
      ],
      "stateMutability": "view",
      "type": "function"
    },
    {
      "inputs": [
        {
          "internalType": "bool",
          "name": "_enabled",
          "type": "bool"
        }
      ],
      "name": "toggleWhitelist",
      "outputs": [],
      "stateMutability": "nonpayable",
      "type": "function"
    },
    {
      "inputs": [
        {
          "internalType": "address",
          "name": "newOwner",
          "type": "address"
        }
      ],
      "name": "transferOwnership",
      "outputs": [],
      "stateMutability": "nonpayable",
      "type": "function"
    },
    {
      "inputs": [
        {
          "internalType": "string",
          "name": "_description",
          "type": "string"
        },
        {
          "internalType": "string",
          "name": "_eventURI",
          "type": "string"
        },
        {
          "internalType": "string",
          "name": "_venue",
          "type": "string"
        },
        {
          "internalType": "uint256",
          "name": "_eventStartTime",
          "type": "uint256"
        },
        {
          "internalType": "uint256",
          "name": "_eventEndTime",
          "type": "uint256"
        }
      ],
      "name": "updateEventDetails",
      "outputs": [],
      "stateMutability": "nonpayable",
      "type": "function"
    },
    {
      "inputs": [
        {
          "internalType": "uint256",
          "name": "_startTime",
          "type": "uint256"
        },
        {
          "internalType": "uint256",
          "name": "_endTime",
          "type": "uint256"
        }
      ],
      "name": "updateSalesPeriod",
      "outputs": [],
      "stateMutability": "nonpayable",
      "type": "function"
    },
    {
      "inputs": [
        {
          "internalType": "address[]",
          "name": "_addresses",
          "type": "address[]"
        },
        {
          "internalType": "bool",
          "name": "_status",
          "type": "bool"
        }
      ],
      "name": "updateWhitelist",
      "outputs": [],
      "stateMutability": "nonpayable",
      "type": "function"
    },
    {
      "inputs": [],
      "name": "venue",
      "outputs": [
        {
          "internalType": "string",
          "name": "",
          "type": "string"
        }
      ],
      "stateMutability": "view",
      "type": "function"
    },
    {
      "inputs": [
        {
          "internalType": "address",
          "name": "",
          "type": "address"
        }
      ],
      "name": "whitelist",
      "outputs": [
        {
          "internalType": "bool",
          "name": "",
          "type": "bool"
        }
      ],
      "stateMutability": "view",
      "type": "function"
    },
    {
      "inputs": [],
      "name": "whitelistEnabled",
      "outputs": [
        {
          "internalType": "bool",
          "name": "",
          "type": "bool"
        }
      ],
      "stateMutability": "view",
      "type": "function"
    }
  ],
  "bytecode": "0x608060405234610836576132bc803803806100198161083b565b928339810190610120818303126108365780516001600160401b0381116108365782610046918301610876565b60208201516001600160401b0381116108365783610065918401610876565b60408301519093906001600160a01b03811690819003610836576060840151608085015160a08601519091906001600160401b03811161083657846100ab918801610876565b9260c08701519660e08101519561010082015160018060401b038111610836576100d59201610876565b97811561082057600080546001600160a01b03198116841782556040519184916001600160a01b0316907f8be0079c531659141344cd1fd0a4f28419497f9722a3daafe3b4186f6b6457e09080a3600180558751156107f0575082156107bb57600096428911156107895788871115610754578051906001600160401b03821161074057600254600181811c91168015610736575b6020821014610722579081601f8493116106b4575b50602090601f831160011461064f578a92610644575b50508160011b916000199060031b1c1916176002555b8051906001600160401b03821161063057600354600181811c91168015610626575b6020821014610612579081601f8493116105a4575b50602090601f831160011461053f578992610534575b50508160011b916000199060031b1c1916176003555b600480546001600160a01b0319169190911790556005556006556008805460ff191660011790558051906001600160401b03821161052057600954600181811c91168015610516575b6020821014610502579081601f849311610494575b50602090601f831160011461042f578592610424575b50508160011b916000199060031b1c1916176009555b42600a55600b839055600c558251906001600160401b03821161041057600d54600181811c91168015610406575b60208210146103f257601f811161038f575b50602090601f831160011461032d579382939492610322575b50508160011b916000199060031b1c191617600d555b42601255601355600a6011556040516129da90816108e28239f35b0151905038806102f1565b90601f19831694600d8352818320925b868110610377575083600195961061035e575b505050811b01600d55610307565b015160001960f88460031b161c19169055388080610350565b9192602060018192868501518155019401920161033d565b600d82527fd7b6990105719101dabeb77144f2a3385c8033acd3af97e9423a695e81ad1eb5601f840160051c810191602085106103e8575b601f0160051c01905b8181106103dd57506102d8565b8281556001016103d0565b90915081906103c7565b634e487b7160e01b82526022600452602482fd5b90607f16906102c6565b634e487b7160e01b81526041600452602490fd5b015190503880610282565b600986528186209250601f198416865b81811061047c5750908460019594939210610463575b505050811b01600955610298565b015160001960f88460031b161c19169055388080610455565b9293602060018192878601518155019501930161043f565b600986529091507f6e1540171b6c0c960b71a7020d9f60077f6af931a8bbf590da0223dacf75c7af601f840160051c810191602085106104f8575b90601f859493920160051c01905b8181106104ea575061026c565b8681558493506001016104dd565b90915081906104cf565b634e487b7160e01b85526022600452602485fd5b90607f1690610257565b634e487b7160e01b84526041600452602484fd5b0151905038806101f8565b60038a52818a209250601f1984168a5b81811061058c5750908460019594939210610573575b505050811b0160035561020e565b015160001960f88460031b161c19169055388080610565565b9293602060018192878601518155019501930161054f565b60038a529091507fc2575a0e9e593c00f959f8c92f12db2869c3395a3b0502d05e2516446f71f85b601f840160051c81019160208510610608575b90601f859493920160051c01905b8181106105fa57506101e2565b8a81558493506001016105ed565b90915081906105df565b634e487b7160e01b89526022600452602489fd5b90607f16906101cd565b634e487b7160e01b88526041600452602488fd5b015190503880610195565b60028b52818b209250601f1984168b5b81811061069c5750908460019594939210610683575b505050811b016002556101ab565b015160001960f88460031b161c19169055388080610675565b9293602060018192878601518155019501930161065f565b60028b529091507f405787fa12a823e0f2b7631cc41b3ba8828b3321ca811111fa75cd3aa3bb5ace601f840160051c81019160208510610718575b90601f859493920160051c01905b81811061070a575061017f565b8b81558493506001016106fd565b90915081906106ef565b634e487b7160e01b8a52602260045260248afd5b90607f169061016a565b634e487b7160e01b89526041600452602489fd5b60405162461bcd60e51b815260206004820152600d60248201526c496e76616c69642074696d657360981b6044820152606490fd5b60405162461bcd60e51b815260206004820152600a60248201526914185cdd08195d995b9d60b21b6044820152606490fd5b60405162461bcd60e51b815260206004820152600d60248201526c496e76616c696420707269636560981b6044820152606490fd5b62461bcd60e51b815260206004820152600b60248201526a456d707479207469746c6560a81b6044820152606490fd5b631e4fbdf760e01b600052600060045260246000fd5b600080fd5b6040519190601f01601f191682016001600160401b0381118382101761086057604052565b634e487b7160e01b600052604160045260246000fd5b81601f82011215610836578051906001600160401b038211610860576108a5601f8301601f191660200161083b565b92828452602083830101116108365760005b8281106108cc57505060206000918301015290565b806020809284010151828287010152016108b756fe608080604052600436101561001357600080fd5b600090813560e01c908163069a052314612164575080630f1c2963146120cc5780631209b1f6146120ae5780631b54c0251461209057806322f3e2d41461206d5780632b2f0a0c1461204f5780632be32dbb146120315780634462182b14611b0d5780634db8563614611a8957806351fb012d14611a665780636120326514611a3d578063628ed260146114265780636cabab351461136f578063715018a614611315578063740ea9a6146112f757806380e3f1ad146112b2578063860954a2146112965780638da5cb5b1461126f5780638f15024f146112515780639434571b146112355780639b19251a146111f65780639b894703146111d8578063a0426f7c14611190578063a270a73714611174578063a7ccabdf146110b8578063aff177ca14610f77578063b5e8069514610f47578063cef2646d14610eb9578063cf09e0d014610e9b578063d56d229d14610e72578063d6bd5db114610e54578063dadd0a5714610d2b578063e2bb3ccf14610c4a578063e8eedc0814610c21578063eabd312d14610618578063f2fde38b146105925763f7c40884146101b857600080fd5b3461058f57608036600319011261058f576004356001600160401b03811161058d576101e89036906004016121ed565b6024356064356001600160401b0381116105895761020a9036906004016121ed565b9061022060018060a01b03600454163314612656565b61022b8115156126bd565b610237835115156126f9565b61024382511515612732565b61024e60155461276a565b92836015556040519261026084612180565b81845260208401938385526040810160443581526060820188815260808301916001835260a0840197858952898b52601460205260408b2094518051906001600160401b038211610575576102b587546122c5565b8d601f821161052c575b9050506020908d601f84116001146104bf5792610325969492819260059a999795926104b4575b50508160011b916000199060031b1c19161786555b516001860155516002850155516003840155511515600483019060ff801983541691151516179055565b0193518051906001600160401b0382116104a05761034386546122c5565b601f811161045b575b5060209787959493929189916001601f8511146103cc57927f24da1cc07aa6609ed68d98ab48e9f6419a554d8a48f45b29f7e0ae0bebf667d597989281926103b69695926103c1575b50508160011b916000199060031b1c19161790555b6040519384938461278f565b0390a2604051908152f35b015190503880610395565b90601f98939298198316848352898320925b8181106104415750917f24da1cc07aa6609ed68d98ab48e9f6419a554d8a48f45b29f7e0ae0bebf667d5989984926103b697969560019510610428575b505050811b0190556103aa565b015160001960f88460031b161c1916905538808061041b565b828b01518455998c01998b99506001909301928c016103de565b86895260208920601f840160051c81019160208510610496575b601f0160051c01905b81811061048b575061034c565b89815560010161047e565b9091508190610475565b634e487b7160e01b88526041600452602488fd5b0151905038806102e6565b9190601f198416898452828420935b818110610514575092600192859260059b9a98966103259a9896106104fb575b505050811b0186556102fb565b015160001960f88460031b161c191690553880806104ee565b929360206001819287860151815501950193016104ce565b80896020925220601f840160051c8101916020851061056b575b601f0160051c01908e905b82811061055e57506102bf565b6001918155018e90610551565b9091508190610546565b634e487b7160e01b8d52604160045260248dfd5b8380fd5b505b80fd5b503461058f57602036600319011261058f576105ac6125e9565b6105b4612944565b6001600160a01b031680156106045781546001600160a01b03198116821783556001600160a01b03167f8be0079c531659141344cd1fd0a4f28419497f9722a3daafe3b4186f6b6457e08380a380f35b631e4fbdf760e01b82526004829052602482fd5b50606036600319011261058f5761062d6125e9565b602435906044359160ff6008541615610beb576012544210610bb2576013544211610b7f57600260015414610b70576002600155600e546001600160a01b03163303610b37578015610aff5760ff60105416610aab575b8092801560001461099657506005546106a86106a083836128be565b3410156128d1565b6106b282826128be565b9160065480610931575b5050506106cb83600754612852565b6007555b60115480610865575b50838080808460018060a01b03600454165af16106f3612914565b501561082f578034116107d3575b835484906001600160a01b031680610756575b50507f2a91574e12ad96234e84923e146b0946ecfb871cd8d5534dc1fdcbe87a7c01b3916040918251948552602085015260018060a01b031692a26001805580f35b60075490803b156107cf5760648392604051948593849263170c17f160e31b845282600485015260248401528760448401525af1610796575b8490610714565b91846107c6604093967f2a91574e12ad96234e84923e146b0946ecfb871cd8d5534dc1fdcbe87a7c01b3956121b1565b9491509161078f565b8280fd5b838080806107e18534612845565b6001600160a01b0387165af16107f5612914565b506107015760405162461bcd60e51b815260206004820152600d60248201526c1499599d5b990819985a5b1959609a1b6044820152606490fd5b60405162461bcd60e51b815260206004820152600e60248201526d14185e5b595b9d0819985a5b195960921b6044820152606490fd5b600e546040516370a0823160e01b81526001600160a01b038581166004830152909160209183916024918391165afa801561092657859087906108ec575b6108ad9250612852565b116108b857386106d8565b60405162461bcd60e51b815260206004820152600c60248201526b15d85b1b195d081b1a5b5a5d60a21b6044820152606490fd5b50506020813d60201161091e575b81610907602093836121b1565b8101031261091a57846108ad91516108a3565b8580fd5b3d91506108fa565b6040513d88823e3d90fd5b60075461093d91612845565b908115610966578110610951575b806106bc565b935061095f915083906128be565b388061094b565b60405162461bcd60e51b815260206004820152600860248201526714dbdb19081bdd5d60c21b6044820152606490fd5b845260146020526040842060ff60048201541615610a725760018101546109c06106a084836128be565b6109ca83826128be565b926002830154806109fd575b5050506003016109e7848254612852565b90556109f583600754612852565b6007556106cf565b6003840154610a0b91612845565b908115610a39578110610a1f575b806109d6565b610a31919550600392935080956128be565b919038610a19565b60405162461bcd60e51b815260206004820152601160248201527010d85d1959dbdc9e481cdbdb19081bdd5d607a1b6044820152606490fd5b60405162461bcd60e51b815260206004820152601160248201527043617465676f727920696e61637469766560781b6044820152606490fd5b6001600160a01b0382168452600f602052604084205460ff166106845760405162461bcd60e51b815260206004820152600f60248201526e139bdd081dda1a5d195b1a5cdd1959608a1b6044820152606490fd5b60405162461bcd60e51b815260206004820152601060248201526f496e76616c6964207175616e7469747960801b6044820152606490fd5b60405162461bcd60e51b815260206004820152601160248201527013db9b1e481391950818dbdb9d1c9858dd607a1b6044820152606490fd5b633ee5aeb560e01b8452600484fd5b60405162461bcd60e51b815260206004820152600b60248201526a14d85b195cc8195b99195960aa1b6044820152606490fd5b60405162461bcd60e51b815260206004820152601160248201527014d85b195cc81b9bdd081cdd185c9d1959607a1b6044820152606490fd5b60405162461bcd60e51b815260206004820152600e60248201526d4576656e7420696e61637469766560901b6044820152606490fd5b503461058f57602036600319011261058f576020610c4060043561285f565b6040519015158152f35b503461058f578060031936011261058f57600160a01b600190036004541660055490600654916007549260085460ff1692600a5491600b5490600c5492610c8f6122ff565b96610c986123b8565b98610ca16124c2565b93610caa61243d565b986040519b8c9b6101808d526101808d01610cc491612239565b8c810360208e0152610cd591612239565b9460408c015260608b015260808a015260a0890152151560c088015286810360e0880152610d0291612239565b92610100860152610120850152610140840152828103610160840152610d2791612239565b0390f35b503461058f578060031936011261058f57601554610d488161227a565b90610d5660405192836121b1565b808252601f19610d658261227a565b01835b818110610e3d57505060015b81811115610de35782846040519182916020830160208452825180915260408401602060408360051b870101940192905b828210610db457505050500390f35b91936001919395506020610dd38192603f198a820301865288516125ff565b9601920192018594939192610da5565b808452601460205260408420600019820190828211610e2957610e249291610e0d610e1e926127ec565b610e178288612693565b5285612693565b5061276a565b610d74565b634e487b7160e01b86526011600452602486fd5b602090610e486127b8565b82828701015201610d68565b503461058f578060031936011261058f576020600c54604051908152f35b503461058f578060031936011261058f57600e546040516001600160a01b039091168152602090f35b503461058f578060031936011261058f576020600a54604051908152f35b503461058f57602036600319011261058f576040610f23916004358152601460205220610d27610ee882612547565b916001810154906002810154906003810154610f0e600560ff6004850154169301612547565b9260405197889760c0895260c0890190612239565b946020880152604087015260608601521515608085015283820360a0850152612239565b503461058f578060031936011261058f57610d27610f636124c2565b604051918291602083526020830190612239565b503461058f57604036600319011261058f576004356001600160401b03811161058d573660238201121561058d578060040135610fb38161227a565b91610fc160405193846121b1565b8183526024602084019260051b820101903682116110b457602401915b8183106110945750505060243590811515908183036105895761100c60018060a01b03600454163314612656565b835b8151811015611090576001906001600160a01b0361102c8285612693565b51168652600f60205261104e85604088209060ff801983541691151516179055565b818060a01b0361105e8285612693565b51167ff93f9a76c1bf3444d22400a00cb9fe990e6abe9dbb333fda48859cfee864543d6020604051878152a20161100e565b8480f35b82356001600160a01b038116810361091a57815260209283019201610fde565b8480fd5b503461058f57602036600319011261058f576110d26125e9565b600e54906001600160a01b038216611141576001600160a01b0316908115611105576001600160a01b03191617600e5580f35b60405162461bcd60e51b8152602060048201526014602482015273125b9d985b1a59081391950818dbdb9d1c9858dd60621b6044820152606490fd5b60405162461bcd60e51b815260206004820152600b60248201526a105b1c9958591e481cd95d60aa1b6044820152606490fd5b503461058f578060031936011261058f57610d27610f6361243d565b503461058f57602036600319011261058f576111c46040610d27926111b36127b8565b5060043581526014602052206127ec565b6040519182916020835260208301906125ff565b503461058f578060031936011261058f576020600654604051908152f35b503461058f57602036600319011261058f5760209060ff906040906001600160a01b036112216125e9565b168152600f84522054166040519015158152f35b503461058f578060031936011261058f57610d27610f636123b8565b503461058f578060031936011261058f576020600754604051908152f35b503461058f578060031936011261058f57546040516001600160a01b039091168152602090f35b503461058f578060031936011261058f57610d27610f636122ff565b503461058f57602036600319011261058f5760043580151580910361058d576112e660018060a01b03600454163314612656565b60ff80196010541691161760105580f35b503461058f578060031936011261058f576020600b54604051908152f35b503461058f578060031936011261058f5761132e612944565b80546001600160a01b03198116825581906001600160a01b03167f8be0079c531659141344cd1fd0a4f28419497f9722a3daafe3b4186f6b6457e08280a380f35b503461058f57604036600319011261058f576004356024359061139d60018060a01b03600454163314612656565b808211156113f057600b5482116113b75760125560135580f35b60405162461bcd60e51b815260206004820152601160248201527014d85b195cc818599d195c88195d995b9d607a1b6044820152606490fd5b60405162461bcd60e51b815260206004820152600e60248201526d125b9d985b1a59081c195c9a5bd960921b6044820152606490fd5b503461058f57602036600319011261058f57600435906001600160401b03821161058f573660238301121561058f5781600401356114638161227a565b9261147160405194856121b1565b8184526024602085019260051b820101903682116105895760248101925b82841061198b5785856114ad60018060a01b03600454163314612656565b81511561194d5760148251116119125781516114c88161227a565b906114d660405192836121b1565b8082526114e5601f199161227a565b01366020830137815b83518310156118b85761151060206115068587612693565b51015115156126bd565b61152761151d8486612693565b51515115156126f9565b61154160606115368587612693565b510151511515612732565b61154c60155461276a565b92836015558361155c8285612693565b526115678186612693565b51519360206115768388612693565b5101519460406115868489612693565b510151956060611596858a612693565b51015196604051926115a784612180565b83526020830191825260408301908152606083019086825260808401926001845260a08501998a5285885260146020526040882094518051906001600160401b0382116118a4576115f887546122c5565b601f811161185f575b50602090601f83116001146117f35791806116629694926005999896948d926117e85750508160011b916000199060031b1c1916178655516001860155516002850155516003840155511515600483019060ff801983541691151516179055565b0194519485516001600160401b0381116117d45761168082546122c5565b601f811161178f575b506020601f821160011461172a5781908697986001979261171f575b5050600019600383901b1c191690851b1790555b7f24da1cc07aa6609ed68d98ab48e9f6419a554d8a48f45b29f7e0ae0bebf667d56116e48388612693565b515160206116f2858a612693565b510151906117146060611705878c612693565b5101516040519384938461278f565b0390a20191906114ee565b0151905089806116a5565b82865280862097601f198316875b818110611777575091600197989991848995941061175e575b505050811b0190556116b9565b015160001960f88460031b161c19169055898080611751565b92996020600181928d8601518155019b019301611738565b82865260208620601f830160051c810191602084106117ca575b601f0160051c01905b8181106117bf5750611689565b8681556001016117b2565b90915081906117a9565b634e487b7160e01b85526041600452602485fd5b015190508f806102e6565b878b52818b209190601f1984168c5b818110611847575092600192859260059b9a98966116629a98961061182e57505050811b0186556102fb565b015160001960f88460031b161c191690558f80806104ee565b92936020600181928786015181550195019301611802565b878b5260208b20601f840160051c8101916020851061189a575b601f0160051c01905b81811061188f5750611601565b8b8155600101611882565b9091508190611879565b634e487b7160e01b8a52604160045260248afd5b610d27827f370bbe1d59b660849f246e50f59210dd6cf96f69b42ef2c416967996bc835b8b86516040518091604082526118f56040830186612291565b9060208301520390a1604051918291602083526020830190612291565b60405162461bcd60e51b8152602060048201526013602482015272546f6f206d616e792063617465676f7269657360681b6044820152606490fd5b60405162461bcd60e51b8152602060048201526016602482015275139bc818d85d1959dbdc9a595cc81c1c9bdd9a59195960521b6044820152606490fd5b83356001600160401b03811161091a5782016080602319823603011261091a5760405190608082018281106001600160401b038211176104a05760405260248101356001600160401b038111611a39576119eb90602436918401016121ed565b8252604481013560208301526064810135604083015260848101356001600160401b038111611a395791611a296020949260248695369201016121ed565b606082015281520193019261148f565b8780fd5b503461058f578060031936011261058f576004546040516001600160a01b039091168152602090f35b503461058f578060031936011261058f57602060ff601054166040519015158152f35b503461058f57602036600319011261058f5760043580151580611b01575b15611ac6576005604083610f6393610d27955260146020522001612547565b60405162461bcd60e51b8152602060048201526013602482015272125b9d985b1a590818d85d1959dbdc9e481251606a1b6044820152606490fd5b50601554811115611aa7565b503461058f5760a036600319011261058f576004356001600160401b03811161058d57611b3e9036906004016121ed565b906024356001600160401b03811161058d57611b5e9036906004016121ed565b916044356001600160401b0381116107cf57611b7e9036906004016121ed565b926064359060843592611b9c60018060a01b03600454163314612656565b82841115611ffc5742831115611fc5578051906001600160401b038211611fb1578190611bca6003546122c5565b601f8111611f3c575b50602090601f8311600114611ecb578792611ec0575b50508160011b916000199060031b1c1916176003555b8051906001600160401b0382116117d4578190611c1d6009546122c5565b601f8111611e4b575b50602090601f8311600114611dda578692611dcf575b50508160011b916000199060031b1c1916176009555b83516001600160401b038111611dbb57611c6d600d546122c5565b601f8111611d50575b50602094601f8211600114611ce0579484958293949592611cd5575b50508160011b916000199060031b1c191617600d555b600b55600c557fb8c7154e2dd592fae2092b20b6c082f892e32800e1992ad1717e65976b5913848180a180f35b015190503880611c92565b600d8552601f1982169560008051602061298e83398151915291865b888110611d3857508360019596979810611d1f575b505050811b01600d55611ca8565b015160001960f88460031b161c19169055388080611d11565b91926020600181928685015181550194019201611cfc565b600d8552601f820160051c60008051602061298e833981519152019060208310611da5575b601f0160051c60008051602061298e83398151915201905b818110611d9a5750611c76565b858155600101611d8d565b60008051602061298e8339815191529150611d75565b634e487b7160e01b84526041600452602484fd5b015190503880611c3c565b600987526000805160206129ae8339815191529250601f198416875b818110611e335750908460019594939210611e1a575b505050811b01600955611c52565b015160001960f88460031b161c19169055388080611e0c565b92936020600181928786015181550195019301611df6565b90915060098652601f830160051c6000805160206129ae833981519152019060208410611eaa575b90601f8493920160051c6000805160206129ae83398151915201905b818110611e9c5750611c26565b878155849350600101611e8f565b6000805160206129ae8339815191529150611e73565b015190503880611be9565b6003885260008051602061296e8339815191529250601f198416885b818110611f245750908460019594939210611f0b575b505050811b01600355611bff565b015160001960f88460031b161c19169055388080611efd565b92936020600181928786015181550195019301611ee7565b90915060038752601f830160051c60008051602061296e833981519152019060208410611f9b575b90601f8493920160051c60008051602061296e83398151915201905b818110611f8d5750611bd3565b888155849350600101611f80565b60008051602061296e8339815191529150611f64565b634e487b7160e01b86526041600452602486fd5b60405162461bcd60e51b815260206004820152600f60248201526e506173742073746172742074696d6560881b6044820152606490fd5b60405162461bcd60e51b815260206004820152600d60248201526c496e76616c69642074696d657360981b6044820152606490fd5b503461058f578060031936011261058f576020601554604051908152f35b503461058f578060031936011261058f576020601154604051908152f35b503461058f578060031936011261058f57602060ff600854166040519015158152f35b503461058f578060031936011261058f576020601254604051908152f35b503461058f578060031936011261058f576020600554604051908152f35b503461058f578060031936011261058f576120f260018060a01b03600454163314612656565b60085460ff81161561212c5760ff19166008557f1633395b3d19b53638dc44afbbedcd06dfde0b2ee80cfa7640fefc57feff7ee18180a180f35b60405162461bcd60e51b815260206004820152601060248201526f416c726561647920696e61637469766560801b6044820152606490fd5b90503461058d578160031936011261058d576020906013548152f35b60c081019081106001600160401b0382111761219b57604052565b634e487b7160e01b600052604160045260246000fd5b90601f801991011681019081106001600160401b0382111761219b57604052565b6001600160401b03811161219b57601f01601f191660200190565b81601f8201121561223457803590612204826121d2565b9261221260405194856121b1565b8284526020838301011161223457816000926020809301838601378301015290565b600080fd5b919082519283825260005b848110612265575050826000602080949584010152601f8019910116010190565b80602080928401015182828601015201612244565b6001600160401b03811161219b5760051b60200190565b906020808351928381520192019060005b8181106122af5750505090565b82518452602093840193909201916001016122a2565b90600182811c921680156122f5575b60208310146122df57565b634e487b7160e01b600052602260045260246000fd5b91607f16916122d4565b6040519060008260025491612313836122c5565b80835292600181169081156123995750600114612339575b612337925003836121b1565b565b506002600090815290917f405787fa12a823e0f2b7631cc41b3ba8828b3321ca811111fa75cd3aa3bb5ace5b81831061237d5750509060206123379282010161232b565b6020919350806001915483858901015201910190918492612365565b6020925061233794915060ff191682840152151560051b82010161232b565b60405190600082600354916123cc836122c5565b808352926001811690811561239957506001146123ef57612337925003836121b1565b5060036000908152909160008051602061296e8339815191525b8183106124215750509060206123379282010161232b565b6020919350806001915483858901015201910190918492612409565b60405190600082600d5491612451836122c5565b8083529260018116908115612399575060011461247457612337925003836121b1565b50600d6000908152909160008051602061298e8339815191525b8183106124a65750509060206123379282010161232b565b602091935080600191548385890101520191019091849261248e565b60405190600082600954916124d6836122c5565b808352926001811690811561239957506001146124f957612337925003836121b1565b506009600090815290916000805160206129ae8339815191525b81831061252b5750509060206123379282010161232b565b6020919350806001915483858901015201910190918492612513565b906040519182600082549261255b846122c5565b80845293600181169081156125c75750600114612580575b50612337925003836121b1565b90506000929192526020600020906000915b8183106125ab5750509060206123379282010138612573565b6020919350806001915483858901015201910190918492612592565b90506020925061233794915060ff191682840152151560051b82010138612573565b600435906001600160a01b038216820361223457565b6126539160a0612618835160c0845260c0840190612239565b9260208101516020840152604081015160408401526060810151606084015260808101511515608084015201519060a0818403910152612239565b90565b1561265d57565b60405162461bcd60e51b815260206004820152600e60248201526d27b7363c9037b933b0b734bd32b960911b6044820152606490fd5b80518210156126a75760209160051b010190565b634e487b7160e01b600052603260045260246000fd5b156126c457565b60405162461bcd60e51b815260206004820152600d60248201526c496e76616c696420707269636560981b6044820152606490fd5b1561270057565b60405162461bcd60e51b815260206004820152600a602482015269456d707479206e616d6560b01b6044820152606490fd5b1561273957565b60405162461bcd60e51b8152602060048201526009602482015268456d7074792055524960b81b6044820152606490fd5b60001981146127795760010190565b634e487b7160e01b600052601160045260246000fd5b6127a56126539492606083526060830190612239565b9260208201526040818403910152612239565b604051906127c582612180565b606060a0838281526000602082015260006040820152600083820152600060808201520152565b906040516127f981612180565b60a06128406005839561280b81612547565b855260018101546020860152600281015460408601526003810154606086015260ff6004820154161515608086015201612547565b910152565b9190820391821161277957565b9190820180921161277957565b60ff60085416156128ad57601254421080156128b3575b6128ad576006548015159182612897575b505061289257600190565b600090565b6128a5919250600754612852565b113880612887565b50600090565b506013544211612876565b8181029291811591840414171561277957565b156128d857565b60405162461bcd60e51b8152602060048201526014602482015273125b9cdd59999a58da595b9d081c185e5b595b9d60621b6044820152606490fd5b3d1561293f573d90612925826121d2565b9161293360405193846121b1565b82523d6000602084013e565b606090565b6000546001600160a01b0316330361295857565b63118cdaa760e01b6000523360045260246000fdfec2575a0e9e593c00f959f8c92f12db2869c3395a3b0502d05e2516446f71f85bd7b6990105719101dabeb77144f2a3385c8033acd3af97e9423a695e81ad1eb56e1540171b6c0c960b71a7020d9f60077f6af931a8bbf590da0223dacf75c7afa164736f6c634300081c000a",
  "linkReferences": {},
  "deployedLinkReferences": {}
}