{
  "_format": "hh-sol-artifact-1",
  "contractName": "EventContract",
  "sourceName": "contracts/EventContract.sol",
  "abi": [
    {
      "inputs": [
        {
          "internalType": "string",
          "name": "_eventTitle",
          "type": "string"
        },
        {
          "internalType": "string",
          "name": "_eventDescription",
          "type": "string"
        },
        {
          "internalType": "address",
          "name": "_organizer",
          "type": "address"
        },
        {
          "internalType": "uint256",
          "name": "_ticketPrice",
          "type": "uint256"
        },
        {
          "internalType": "uint256",
          "name": "_maxTickets",
          "type": "uint256"
        },
        {
          "internalType": "string",
          "name": "_eventURI",
          "type": "string"
        },
        {
          "internalType": "uint256",
          "name": "_eventStartTime",
          "type": "uint256"
        },
        {
          "internalType": "uint256",
          "name": "_eventEndTime",
          "type": "uint256"
        },
        {
          "internalType": "string",
          "name": "_venue",
          "type": "string"
        }
      ],
      "stateMutability": "nonpayable",
      "type": "constructor"
    },
    {
      "inputs": [
        {
          "internalType": "address",
          "name": "owner",
          "type": "address"
        }
      ],
      "name": "OwnableInvalidOwner",
      "type": "error"
    },
    {
      "inputs": [
        {
          "internalType": "address",
          "name": "account",
          "type": "address"
        }
      ],
      "name": "OwnableUnauthorizedAccount",
      "type": "error"
    },
    {
      "inputs": [],
      "name": "ReentrancyGuardReentrantCall",
      "type": "error"
    },
    {
      "anonymous": false,
      "inputs": [
        {
          "indexed": true,
          "internalType": "uint256",
          "name": "categoryId",
          "type": "uint256"
        },
        {
          "indexed": false,
          "internalType": "string",
          "name": "name",
          "type": "string"
        },
        {
          "indexed": false,
          "internalType": "uint256",
          "name": "price",
          "type": "uint256"
        }
      ],
      "name": "CategoryAdded",
      "type": "event"
    },
    {
      "anonymous": false,
      "inputs": [],
      "name": "EventDeactivated",
      "type": "event"
    },
    {
      "anonymous": false,
      "inputs": [],
      "name": "EventUpdated",
      "type": "event"
    },
    {
      "anonymous": false,
      "inputs": [
        {
          "indexed": true,
          "internalType": "address",
          "name": "previousOwner",
          "type": "address"
        },
        {
          "indexed": true,
          "internalType": "address",
          "name": "newOwner",
          "type": "address"
        }
      ],
      "name": "OwnershipTransferred",
      "type": "event"
    },
    {
      "anonymous": false,
      "inputs": [
        {
          "indexed": true,
          "internalType": "address",
          "name": "buyer",
          "type": "address"
        },
        {
          "indexed": false,
          "internalType": "uint256",
          "name": "quantity",
          "type": "uint256"
        },
        {
          "indexed": false,
          "internalType": "uint256",
          "name": "totalPrice",
          "type": "uint256"
        }
      ],
      "name": "TicketPurchased",
      "type": "event"
    },
    {
      "anonymous": false,
      "inputs": [
        {
          "indexed": true,
          "internalType": "address",
          "name": "user",
          "type": "address"
        },
        {
          "indexed": false,
          "internalType": "bool",
          "name": "status",
          "type": "bool"
        }
      ],
      "name": "WhitelistUpdated",
      "type": "event"
    },
    {
      "inputs": [
        {
          "internalType": "string",
          "name": "_name",
          "type": "string"
        },
        {
          "internalType": "uint256",
          "name": "_price",
          "type": "uint256"
        },
        {
          "internalType": "uint256",
          "name": "_maxSupply",
          "type": "uint256"
        }
      ],
      "name": "addTicketCategory",
      "outputs": [
        {
          "internalType": "uint256",
          "name": "",
          "type": "uint256"
        }
      ],
      "stateMutability": "nonpayable",
      "type": "function"
    },
    {
      "inputs": [],
      "name": "categoryCount",
      "outputs": [
        {
          "internalType": "uint256",
          "name": "",
          "type": "uint256"
        }
      ],
      "stateMutability": "view",
      "type": "function"
    },
    {
      "inputs": [],
      "name": "createdAt",
      "outputs": [
        {
          "internalType": "uint256",
          "name": "",
          "type": "uint256"
        }
      ],
      "stateMutability": "view",
      "type": "function"
    },
    {
      "inputs": [],
      "name": "deactivateEvent",
      "outputs": [],
      "stateMutability": "nonpayable",
      "type": "function"
    },
    {
      "inputs": [],
      "name": "eventDescription",
      "outputs": [
        {
          "internalType": "string",
          "name": "",
          "type": "string"
        }
      ],
      "stateMutability": "view",
      "type": "function"
    },
    {
      "inputs": [],
      "name": "eventEndTime",
      "outputs": [
        {
          "internalType": "uint256",
          "name": "",
          "type": "uint256"
        }
      ],
      "stateMutability": "view",
      "type": "function"
    },
    {
      "inputs": [],
      "name": "eventStartTime",
      "outputs": [
        {
          "internalType": "uint256",
          "name": "",
          "type": "uint256"
        }
      ],
      "stateMutability": "view",
      "type": "function"
    },
    {
      "inputs": [],
      "name": "eventTitle",
      "outputs": [
        {
          "internalType": "string",
          "name": "",
          "type": "string"
        }
      ],
      "stateMutability": "view",
      "type": "function"
    },
    {
      "inputs": [],
      "name": "eventURI",
      "outputs": [
        {
          "internalType": "string",
          "name": "",
          "type": "string"
        }
      ],
      "stateMutability": "view",
      "type": "function"
    },
    {
      "inputs": [],
      "name": "getEventDetails",
      "outputs": [
        {
          "internalType": "string",
          "name": "title",
          "type": "string"
        },
        {
          "internalType": "string",
          "name": "description",
          "type": "string"
        },
        {
          "internalType": "address",
          "name": "eventOrganizer",
          "type": "address"
        },
        {
          "internalType": "uint256",
          "name": "price",
          "type": "uint256"
        },
        {
          "internalType": "uint256",
          "name": "maxTicketsCount",
          "type": "uint256"
        },
        {
          "internalType": "uint256",
          "name": "ticketsSoldCount",
          "type": "uint256"
        },
        {
          "internalType": "bool",
          "name": "active",
          "type": "bool"
        },
        {
          "internalType": "string",
          "name": "uri",
          "type": "string"
        },
        {
          "internalType": "uint256",
          "name": "creationTime",
          "type": "uint256"
        },
        {
          "internalType": "uint256",
          "name": "startTime",
          "type": "uint256"
        },
        {
          "internalType": "uint256",
          "name": "endTime",
          "type": "uint256"
        },
        {
          "internalType": "string",
          "name": "eventVenue",
          "type": "string"
        }
      ],
      "stateMutability": "view",
      "type": "function"
    },
    {
      "inputs": [
        {
          "internalType": "uint256",
          "name": "_categoryId",
          "type": "uint256"
        }
      ],
      "name": "getTicketCategory",
      "outputs": [
        {
          "components": [
            {
              "internalType": "string",
              "name": "name",
              "type": "string"
            },
            {
              "internalType": "uint256",
              "name": "price",
              "type": "uint256"
            },
            {
              "internalType": "uint256",
              "name": "maxSupply",
              "type": "uint256"
            },
            {
              "internalType": "uint256",
              "name": "sold",
              "type": "uint256"
            },
            {
              "internalType": "bool",
              "name": "isActive",
              "type": "bool"
            }
          ],
          "internalType": "struct EventContract.TicketCategory",
          "name": "",
          "type": "tuple"
        }
      ],
      "stateMutability": "view",
      "type": "function"
    },
    {
      "inputs": [],
      "name": "isActive",
      "outputs": [
        {
          "internalType": "bool",
          "name": "",
          "type": "bool"
        }
      ],
      "stateMutability": "view",
      "type": "function"
    },
    {
      "inputs": [
        {
          "internalType": "uint256",
          "name": "quantity",
          "type": "uint256"
        }
      ],
      "name": "isTicketAvailable",
      "outputs": [
        {
          "internalType": "bool",
          "name": "",
          "type": "bool"
        }
      ],
      "stateMutability": "view",
      "type": "function"
    },
    {
      "inputs": [],
      "name": "maxTickets",
      "outputs": [
        {
          "internalType": "uint256",
          "name": "",
          "type": "uint256"
        }
      ],
      "stateMutability": "view",
      "type": "function"
    },
    {
      "inputs": [],
      "name": "maxTicketsPerWallet",
      "outputs": [
        {
          "internalType": "uint256",
          "name": "",
          "type": "uint256"
        }
      ],
      "stateMutability": "view",
      "type": "function"
    },
    {
      "inputs": [],
      "name": "nftContract",
      "outputs": [
        {
          "internalType": "address",
          "name": "",
          "type": "address"
        }
      ],
      "stateMutability": "view",
      "type": "function"
    },
    {
      "inputs": [],
      "name": "organizer",
      "outputs": [
        {
          "internalType": "address",
          "name": "",
          "type": "address"
        }
      ],
      "stateMutability": "view",
      "type": "function"
    },
    {
      "inputs": [],
      "name": "owner",
      "outputs": [
        {
          "internalType": "address",
          "name": "",
          "type": "address"
        }
      ],
      "stateMutability": "view",
      "type": "function"
    },
    {
      "inputs": [
        {
          "internalType": "address",
          "name": "buyer",
          "type": "address"
        },
        {
          "internalType": "uint256",
          "name": "quantity",
          "type": "uint256"
        },
        {
          "internalType": "uint256",
          "name": "categoryId",
          "type": "uint256"
        }
      ],
      "name": "purchaseTickets",
      "outputs": [],
      "stateMutability": "payable",
      "type": "function"
    },
    {
      "inputs": [],
      "name": "renounceOwnership",
      "outputs": [],
      "stateMutability": "nonpayable",
      "type": "function"
    },
    {
      "inputs": [],
      "name": "salesEndTime",
      "outputs": [
        {
          "internalType": "uint256",
          "name": "",
          "type": "uint256"
        }
      ],
      "stateMutability": "view",
      "type": "function"
    },
    {
      "inputs": [],
      "name": "salesStartTime",
      "outputs": [
        {
          "internalType": "uint256",
          "name": "",
          "type": "uint256"
        }
      ],
      "stateMutability": "view",
      "type": "function"
    },
    {
      "inputs": [
        {
          "internalType": "address",
          "name": "_nftContract",
          "type": "address"
        }
      ],
      "name": "setNFTContract",
      "outputs": [],
      "stateMutability": "nonpayable",
      "type": "function"
    },
    {
      "inputs": [
        {
          "internalType": "uint256",
          "name": "",
          "type": "uint256"
        }
      ],
      "name": "ticketCategories",
      "outputs": [
        {
          "internalType": "string",
          "name": "name",
          "type": "string"
        },
        {
          "internalType": "uint256",
          "name": "price",
          "type": "uint256"
        },
        {
          "internalType": "uint256",
          "name": "maxSupply",
          "type": "uint256"
        },
        {
          "internalType": "uint256",
          "name": "sold",
          "type": "uint256"
        },
        {
          "internalType": "bool",
          "name": "isActive",
          "type": "bool"
        }
      ],
      "stateMutability": "view",
      "type": "function"
    },
    {
      "inputs": [],
      "name": "ticketPrice",
      "outputs": [
        {
          "internalType": "uint256",
          "name": "",
          "type": "uint256"
        }
      ],
      "stateMutability": "view",
      "type": "function"
    },
    {
      "inputs": [],
      "name": "ticketsSold",
      "outputs": [
        {
          "internalType": "uint256",
          "name": "",
          "type": "uint256"
        }
      ],
      "stateMutability": "view",
      "type": "function"
    },
    {
      "inputs": [
        {
          "internalType": "bool",
          "name": "_enabled",
          "type": "bool"
        }
      ],
      "name": "toggleWhitelist",
      "outputs": [],
      "stateMutability": "nonpayable",
      "type": "function"
    },
    {
      "inputs": [
        {
          "internalType": "address",
          "name": "newOwner",
          "type": "address"
        }
      ],
      "name": "transferOwnership",
      "outputs": [],
      "stateMutability": "nonpayable",
      "type": "function"
    },
    {
      "inputs": [
        {
          "internalType": "string",
          "name": "_description",
          "type": "string"
        },
        {
          "internalType": "string",
          "name": "_eventURI",
          "type": "string"
        },
        {
          "internalType": "string",
          "name": "_venue",
          "type": "string"
        },
        {
          "internalType": "uint256",
          "name": "_eventStartTime",
          "type": "uint256"
        },
        {
          "internalType": "uint256",
          "name": "_eventEndTime",
          "type": "uint256"
        }
      ],
      "name": "updateEventDetails",
      "outputs": [],
      "stateMutability": "nonpayable",
      "type": "function"
    },
    {
      "inputs": [
        {
          "internalType": "uint256",
          "name": "_startTime",
          "type": "uint256"
        },
        {
          "internalType": "uint256",
          "name": "_endTime",
          "type": "uint256"
        }
      ],
      "name": "updateSalesPeriod",
      "outputs": [],
      "stateMutability": "nonpayable",
      "type": "function"
    },
    {
      "inputs": [
        {
          "internalType": "address[]",
          "name": "_addresses",
          "type": "address[]"
        },
        {
          "internalType": "bool",
          "name": "_status",
          "type": "bool"
        }
      ],
      "name": "updateWhitelist",
      "outputs": [],
      "stateMutability": "nonpayable",
      "type": "function"
    },
    {
      "inputs": [],
      "name": "venue",
      "outputs": [
        {
          "internalType": "string",
          "name": "",
          "type": "string"
        }
      ],
      "stateMutability": "view",
      "type": "function"
    },
    {
      "inputs": [
        {
          "internalType": "address",
          "name": "",
          "type": "address"
        }
      ],
      "name": "whitelist",
      "outputs": [
        {
          "internalType": "bool",
          "name": "",
          "type": "bool"
        }
      ],
      "stateMutability": "view",
      "type": "function"
    },
    {
      "inputs": [],
      "name": "whitelistEnabled",
      "outputs": [
        {
          "internalType": "bool",
          "name": "",
          "type": "bool"
        }
      ],
      "stateMutability": "view",
      "type": "function"
    }
  ],
  "bytecode": "0x60806040523461083657612857803803806100198161083b565b928339810190610120818303126108365780516001600160401b0381116108365782610046918301610876565b60208201516001600160401b0381116108365783610065918401610876565b60408301519093906001600160a01b03811690819003610836576060840151608085015160a08601519091906001600160401b03811161083657846100ab918801610876565b9260c08701519660e08101519561010082015160018060401b038111610836576100d59201610876565b97811561082057600080546001600160a01b03198116841782556040519184916001600160a01b0316907f8be0079c531659141344cd1fd0a4f28419497f9722a3daafe3b4186f6b6457e09080a3600180558751156107f0575082156107bb57600096428911156107895788871115610754578051906001600160401b03821161074057600254600181811c91168015610736575b6020821014610722579081601f8493116106b4575b50602090601f831160011461064f578a92610644575b50508160011b916000199060031b1c1916176002555b8051906001600160401b03821161063057600354600181811c91168015610626575b6020821014610612579081601f8493116105a4575b50602090601f831160011461053f578992610534575b50508160011b916000199060031b1c1916176003555b600480546001600160a01b0319169190911790556005556006556008805460ff191660011790558051906001600160401b03821161052057600954600181811c91168015610516575b6020821014610502579081601f849311610494575b50602090601f831160011461042f578592610424575b50508160011b916000199060031b1c1916176009555b42600a55600b839055600c558251906001600160401b03821161041057600d54600181811c91168015610406575b60208210146103f257601f811161038f575b50602090601f831160011461032d579382939492610322575b50508160011b916000199060031b1c191617600d555b42601255601355600a601155604051611f7590816108e28239f35b0151905038806102f1565b90601f19831694600d8352818320925b868110610377575083600195961061035e575b505050811b01600d55610307565b015160001960f88460031b161c19169055388080610350565b9192602060018192868501518155019401920161033d565b600d82527fd7b6990105719101dabeb77144f2a3385c8033acd3af97e9423a695e81ad1eb5601f840160051c810191602085106103e8575b601f0160051c01905b8181106103dd57506102d8565b8281556001016103d0565b90915081906103c7565b634e487b7160e01b82526022600452602482fd5b90607f16906102c6565b634e487b7160e01b81526041600452602490fd5b015190503880610282565b600986528186209250601f198416865b81811061047c5750908460019594939210610463575b505050811b01600955610298565b015160001960f88460031b161c19169055388080610455565b9293602060018192878601518155019501930161043f565b600986529091507f6e1540171b6c0c960b71a7020d9f60077f6af931a8bbf590da0223dacf75c7af601f840160051c810191602085106104f8575b90601f859493920160051c01905b8181106104ea575061026c565b8681558493506001016104dd565b90915081906104cf565b634e487b7160e01b85526022600452602485fd5b90607f1690610257565b634e487b7160e01b84526041600452602484fd5b0151905038806101f8565b60038a52818a209250601f1984168a5b81811061058c5750908460019594939210610573575b505050811b0160035561020e565b015160001960f88460031b161c19169055388080610565565b9293602060018192878601518155019501930161054f565b60038a529091507fc2575a0e9e593c00f959f8c92f12db2869c3395a3b0502d05e2516446f71f85b601f840160051c81019160208510610608575b90601f859493920160051c01905b8181106105fa57506101e2565b8a81558493506001016105ed565b90915081906105df565b634e487b7160e01b89526022600452602489fd5b90607f16906101cd565b634e487b7160e01b88526041600452602488fd5b015190503880610195565b60028b52818b209250601f1984168b5b81811061069c5750908460019594939210610683575b505050811b016002556101ab565b015160001960f88460031b161c19169055388080610675565b9293602060018192878601518155019501930161065f565b60028b529091507f405787fa12a823e0f2b7631cc41b3ba8828b3321ca811111fa75cd3aa3bb5ace601f840160051c81019160208510610718575b90601f859493920160051c01905b81811061070a575061017f565b8b81558493506001016106fd565b90915081906106ef565b634e487b7160e01b8a52602260045260248afd5b90607f169061016a565b634e487b7160e01b89526041600452602489fd5b60405162461bcd60e51b815260206004820152600d60248201526c496e76616c69642074696d657360981b6044820152606490fd5b60405162461bcd60e51b815260206004820152600a60248201526914185cdd08195d995b9d60b21b6044820152606490fd5b60405162461bcd60e51b815260206004820152600d60248201526c496e76616c696420707269636560981b6044820152606490fd5b62461bcd60e51b815260206004820152600b60248201526a456d707479207469746c6560a81b6044820152606490fd5b631e4fbdf760e01b600052600060045260246000fd5b600080fd5b6040519190601f01601f191682016001600160401b0381118382101761086057604052565b634e487b7160e01b600052604160045260246000fd5b81601f82011215610836578051906001600160401b038211610860576108a5601f8301601f191660200161083b565b92828452602083830101116108365760005b8281106108cc57505060206000918301015290565b806020809284010151828287010152016108b756fe608080604052600436101561001357600080fd5b600090813560e01c908163069a052314611913575080630f1c29631461187b5780631209b1f61461185d5780631b54c0251461183f57806322f3e2d41461181c5780632b2f0a0c146117fe5780632be32dbb146117e05780634462182b146112a857806351fb012d14611285578063612032651461125c5780636cabab35146111a5578063715018a61461114b578063740ea9a61461112d57806380e3f1ad146110e8578063860954a2146110cc5780638da5cb5b146110a55780638f15024f146110875780639434571b1461106b5780639b19251a1461102c5780639b8947031461100e578063a0426f7c14610f3b578063a270a73714610f1f578063a7ccabdf14610e63578063aff177ca14610d00578063b5e8069514610cd0578063cef2646d14610c5a578063cf09e0d014610c3c578063d56d229d14610c13578063d6bd5db114610bf5578063dd1ff7cb14610932578063e2bb3ccf14610851578063e8eedc0814610828578063eabd312d1461021f5763f2fde38b1461019757600080fd5b3461021c57602036600319011261021c576101b0611d4d565b6101b8611edf565b6001600160a01b031680156102085781546001600160a01b03198116821783556001600160a01b03167f8be0079c531659141344cd1fd0a4f28419497f9722a3daafe3b4186f6b6457e08380a380f35b631e4fbdf760e01b82526004829052602482fd5b80fd5b50606036600319011261021c57610234611d4d565b602435906044359160ff60085416156107f25760125442106107b957601354421161078657600260015414610777576002600155600e546001600160a01b0316330361073e5780156107065760ff601054166106b2575b8092801560001461059d57506005546102af6102a78383611e4c565b341015611e5f565b6102b98282611e4c565b9160065480610538575b5050506102d283600754611dca565b6007555b6011548061046c575b50838080808460018060a01b03600454165af16102fa611eaf565b5015610436578034116103da575b835484906001600160a01b03168061035d575b50507f2a91574e12ad96234e84923e146b0946ecfb871cd8d5534dc1fdcbe87a7c01b3916040918251948552602085015260018060a01b031692a26001805580f35b60075490803b156103d65760648392604051948593849263170c17f160e31b845282600485015260248401528760448401525af161039d575b849061031b565b91846103cd604093967f2a91574e12ad96234e84923e146b0946ecfb871cd8d5534dc1fdcbe87a7c01b395611960565b94915091610396565b8280fd5b838080806103e88534611ea2565b6001600160a01b0387165af16103fc611eaf565b506103085760405162461bcd60e51b815260206004820152600d60248201526c1499599d5b990819985a5b1959609a1b6044820152606490fd5b60405162461bcd60e51b815260206004820152600e60248201526d14185e5b595b9d0819985a5b195960921b6044820152606490fd5b600e546040516370a0823160e01b81526001600160a01b038581166004830152909160209183916024918391165afa801561052d57859087906104f3575b6104b49250611dca565b116104bf57386102df565b60405162461bcd60e51b815260206004820152600c60248201526b15d85b1b195d081b1a5b5a5d60a21b6044820152606490fd5b50506020813d602011610525575b8161050e60209383611960565b8101031261052157846104b491516104aa565b8580fd5b3d9150610501565b6040513d88823e3d90fd5b60075461054491611ea2565b90811561056d578110610558575b806102c3565b935061056691508390611e4c565b3880610552565b60405162461bcd60e51b815260206004820152600860248201526714dbdb19081bdd5d60c21b6044820152606490fd5b845260146020526040842060ff600482015416156106795760018101546105c76102a78483611e4c565b6105d18382611e4c565b92600283015480610604575b5050506003016105ee848254611dca565b90556105fc83600754611dca565b6007556102d6565b600384015461061291611ea2565b908115610640578110610626575b806105dd565b61063891955060039293508095611e4c565b919038610620565b60405162461bcd60e51b815260206004820152601160248201527010d85d1959dbdc9e481cdbdb19081bdd5d607a1b6044820152606490fd5b60405162461bcd60e51b815260206004820152601160248201527043617465676f727920696e61637469766560781b6044820152606490fd5b6001600160a01b0382168452600f602052604084205460ff1661028b5760405162461bcd60e51b815260206004820152600f60248201526e139bdd081dda1a5d195b1a5cdd1959608a1b6044820152606490fd5b60405162461bcd60e51b815260206004820152601060248201526f496e76616c6964207175616e7469747960801b6044820152606490fd5b60405162461bcd60e51b815260206004820152601160248201527013db9b1e481391950818dbdb9d1c9858dd607a1b6044820152606490fd5b633ee5aeb560e01b8452600484fd5b60405162461bcd60e51b815260206004820152600b60248201526a14d85b195cc8195b99195960aa1b6044820152606490fd5b60405162461bcd60e51b815260206004820152601160248201527014d85b195cc81b9bdd081cdd185c9d1959607a1b6044820152606490fd5b60405162461bcd60e51b815260206004820152600e60248201526d4576656e7420696e61637469766560901b6044820152606490fd5b503461021c57602036600319011261021c576020610847600435611ded565b6040519015158152f35b503461021c578060031936011261021c57600160a01b600190036004541660055490600654916007549260085460ff1692600a5491600b5490600c5492610896611a22565b9661089f611adb565b986108a8611be5565b936108b1611b60565b986040519b8c9b6101808d526101808d016108cb91611d0c565b8c810360208e01526108dc91611d0c565b9460408c015260608b015260808a015260a0890152151560c088015286810360e088015261090991611d0c565b9261010086015261012085015261014084015282810361016084015261092e91611d0c565b0390f35b503461021c57606036600319011261021c576004356001600160401b038111610bf15761096390369060040161199c565b6024359061097c60018060a01b03600454163314611d63565b8115610bbc576015546000198114610ba85760010191826015556040516109a28161192f565b82815260208101828152604082016044358152606083019087825260808401926001845287895260146020526040892094518051906001600160401b038211610b94576109ef87546119e8565b601f8111610b4f575b5060209a8a9998979695949392918c916001601f851114610aba579383610a9f9a9894610a8b98947f4b490cb704751a807609480fcf82577483ead28d1fc63a15f5f98ec617eaa9d89d9b989460049892610aaf575b50508160011b916000199060031b1c19161786555b51600186015551600285015551600384015551151591019060ff801983541691151516179055565b604051928392604084526040840190611d0c565b90878301520390a2604051908152f35b015190503880610a4e565b9190601f198416898452828420935b818110610b35575084610a8b98947f4b490cb704751a807609480fcf82577483ead28d1fc63a15f5f98ec617eaa9d89d9b989460049894610a9f9e9c9860019510610b1c575b505050811b018655610a63565b015160001960f88460031b161c19169055388080610b0f565b8383015185558e9d50600190940193928f01928f01610ac9565b878c5260208c20601f840160051c81019160208510610b8a575b601f0160051c01905b818110610b7f57506109f8565b8c8155600101610b72565b9091508190610b69565b634e487b7160e01b8b52604160045260248bfd5b634e487b7160e01b84526011600452602484fd5b60405162461bcd60e51b815260206004820152600d60248201526c496e76616c696420707269636560981b6044820152606490fd5b5080fd5b503461021c578060031936011261021c576020600c54604051908152f35b503461021c578060031936011261021c57600e546040516001600160a01b039091168152602090f35b503461021c578060031936011261021c576020600a54604051908152f35b503461021c57602036600319011261021c576040610cb5916004358152601460205220610c8681611c6a565b9060018101549060028101549060ff60046003830154920154169160405195869560a0875260a0870190611d0c565b93602086015260408501526060840152151560808301520390f35b503461021c578060031936011261021c5761092e610cec611be5565b604051918291602083526020830190611d0c565b503461021c57604036600319011261021c576004356001600160401b038111610bf15736602382011215610bf1578060040135906001600160401b038211610e4f578160051b9060405192610d586020840185611960565b83526024602084019282010190368211610e4b57602401915b818310610e2b575050506024359081151590818303610e2757610d9f60018060a01b03600454163314611d63565b835b8151811015610e23576001906001600160a01b03610dbf8285611da0565b51168652600f602052610de185604088209060ff801983541691151516179055565b818060a01b03610df18285611da0565b51167ff93f9a76c1bf3444d22400a00cb9fe990e6abe9dbb333fda48859cfee864543d6020604051878152a201610da1565b8480f35b8380fd5b82356001600160a01b038116810361052157815260209283019201610d71565b8480fd5b634e487b7160e01b83526041600452602483fd5b503461021c57602036600319011261021c57610e7d611d4d565b600e54906001600160a01b038216610eec576001600160a01b0316908115610eb0576001600160a01b03191617600e5580f35b60405162461bcd60e51b8152602060048201526014602482015273125b9d985b1a59081391950818dbdb9d1c9858dd60621b6044820152606490fd5b60405162461bcd60e51b815260206004820152600b60248201526a105b1c9958591e481cd95d60aa1b6044820152606490fd5b503461021c578060031936011261021c5761092e610cec611b60565b503461021c57602036600319011261021c57604081610fef9260808351610f618161192f565b6060815282602082015282858201528260608201520152600435815260146020522060405190610f908261192f565b610f9981611c6a565b8252600181015490602083019182526002810154906040840191825260ff60046003830154926060870193845201541691608085019215158352604051958695602087525160a0602088015260c0870190611d0c565b9351604086015251606085015251608084015251151560a08301520390f35b503461021c578060031936011261021c576020600654604051908152f35b503461021c57602036600319011261021c5760209060ff906040906001600160a01b03611057611d4d565b168152600f84522054166040519015158152f35b503461021c578060031936011261021c5761092e610cec611adb565b503461021c578060031936011261021c576020600754604051908152f35b503461021c578060031936011261021c57546040516001600160a01b039091168152602090f35b503461021c578060031936011261021c5761092e610cec611a22565b503461021c57602036600319011261021c57600435801515809103610bf15761111c60018060a01b03600454163314611d63565b60ff80196010541691161760105580f35b503461021c578060031936011261021c576020600b54604051908152f35b503461021c578060031936011261021c57611164611edf565b80546001600160a01b03198116825581906001600160a01b03167f8be0079c531659141344cd1fd0a4f28419497f9722a3daafe3b4186f6b6457e08280a380f35b503461021c57604036600319011261021c57600435602435906111d360018060a01b03600454163314611d63565b8082111561122657600b5482116111ed5760125560135580f35b60405162461bcd60e51b815260206004820152601160248201527014d85b195cc818599d195c88195d995b9d607a1b6044820152606490fd5b60405162461bcd60e51b815260206004820152600e60248201526d125b9d985b1a59081c195c9a5bd960921b6044820152606490fd5b503461021c578060031936011261021c576004546040516001600160a01b039091168152602090f35b503461021c578060031936011261021c57602060ff601054166040519015158152f35b503461021c5760a036600319011261021c576004356001600160401b038111610bf1576112d990369060040161199c565b906024356001600160401b038111610bf1576112f990369060040161199c565b916044356001600160401b0381116103d65761131990369060040161199c565b92606435906084359261133760018060a01b03600454163314611d63565b828411156117ab5742831115611774578051906001600160401b0382116117605781906113656003546119e8565b601f81116116eb575b50602090601f831160011461167a57879261166f575b50508160011b916000199060031b1c1916176003555b8051906001600160401b03821161165b5781906113b86009546119e8565b601f81116115e6575b50602090601f831160011461157557869261156a575b50508160011b916000199060031b1c1916176009555b83516001600160401b03811161155657611408600d546119e8565b601f81116114eb575b50602094601f821160011461147b579484958293949592611470575b50508160011b916000199060031b1c191617600d555b600b55600c557fb8c7154e2dd592fae2092b20b6c082f892e32800e1992ad1717e65976b5913848180a180f35b01519050388061142d565b600d8552601f19821695600080516020611f2983398151915291865b8881106114d3575083600195969798106114ba575b505050811b01600d55611443565b015160001960f88460031b161c191690553880806114ac565b91926020600181928685015181550194019201611497565b600d8552601f820160051c600080516020611f29833981519152019060208310611540575b601f0160051c600080516020611f2983398151915201905b8181106115355750611411565b858155600101611528565b600080516020611f298339815191529150611510565b634e487b7160e01b84526041600452602484fd5b0151905038806113d7565b60098752600080516020611f498339815191529250601f198416875b8181106115ce57509084600195949392106115b5575b505050811b016009556113ed565b015160001960f88460031b161c191690553880806115a7565b92936020600181928786015181550195019301611591565b90915060098652601f830160051c600080516020611f49833981519152019060208410611645575b90601f8493920160051c600080516020611f4983398151915201905b81811061163757506113c1565b87815584935060010161162a565b600080516020611f49833981519152915061160e565b634e487b7160e01b85526041600452602485fd5b015190503880611384565b60038852600080516020611f098339815191529250601f198416885b8181106116d357509084600195949392106116ba575b505050811b0160035561139a565b015160001960f88460031b161c191690553880806116ac565b92936020600181928786015181550195019301611696565b90915060038752601f830160051c600080516020611f0983398151915201906020841061174a575b90601f8493920160051c600080516020611f0983398151915201905b81811061173c575061136e565b88815584935060010161172f565b600080516020611f098339815191529150611713565b634e487b7160e01b86526041600452602486fd5b60405162461bcd60e51b815260206004820152600f60248201526e506173742073746172742074696d6560881b6044820152606490fd5b60405162461bcd60e51b815260206004820152600d60248201526c496e76616c69642074696d657360981b6044820152606490fd5b503461021c578060031936011261021c576020601554604051908152f35b503461021c578060031936011261021c576020601154604051908152f35b503461021c578060031936011261021c57602060ff600854166040519015158152f35b503461021c578060031936011261021c576020601254604051908152f35b503461021c578060031936011261021c576020600554604051908152f35b503461021c578060031936011261021c576118a160018060a01b03600454163314611d63565b60085460ff8116156118db5760ff19166008557f1633395b3d19b53638dc44afbbedcd06dfde0b2ee80cfa7640fefc57feff7ee18180a180f35b60405162461bcd60e51b815260206004820152601060248201526f416c726561647920696e61637469766560801b6044820152606490fd5b905034610bf15781600319360112610bf1576020906013548152f35b60a081019081106001600160401b0382111761194a57604052565b634e487b7160e01b600052604160045260246000fd5b90601f801991011681019081106001600160401b0382111761194a57604052565b6001600160401b03811161194a57601f01601f191660200190565b81601f820112156119e3578035906119b382611981565b926119c16040519485611960565b828452602083830101116119e357816000926020809301838601378301015290565b600080fd5b90600182811c92168015611a18575b6020831014611a0257565b634e487b7160e01b600052602260045260246000fd5b91607f16916119f7565b6040519060008260025491611a36836119e8565b8083529260018116908115611abc5750600114611a5c575b611a5a92500383611960565b565b506002600090815290917f405787fa12a823e0f2b7631cc41b3ba8828b3321ca811111fa75cd3aa3bb5ace5b818310611aa0575050906020611a5a92820101611a4e565b6020919350806001915483858901015201910190918492611a88565b60209250611a5a94915060ff191682840152151560051b820101611a4e565b6040519060008260035491611aef836119e8565b8083529260018116908115611abc5750600114611b1257611a5a92500383611960565b50600360009081529091600080516020611f098339815191525b818310611b44575050906020611a5a92820101611a4e565b6020919350806001915483858901015201910190918492611b2c565b60405190600082600d5491611b74836119e8565b8083529260018116908115611abc5750600114611b9757611a5a92500383611960565b50600d60009081529091600080516020611f298339815191525b818310611bc9575050906020611a5a92820101611a4e565b6020919350806001915483858901015201910190918492611bb1565b6040519060008260095491611bf9836119e8565b8083529260018116908115611abc5750600114611c1c57611a5a92500383611960565b50600960009081529091600080516020611f498339815191525b818310611c4e575050906020611a5a92820101611a4e565b6020919350806001915483858901015201910190918492611c36565b9060405191826000825492611c7e846119e8565b8084529360018116908115611cea5750600114611ca3575b50611a5a92500383611960565b90506000929192526020600020906000915b818310611cce575050906020611a5a9282010138611c96565b6020919350806001915483858901015201910190918492611cb5565b905060209250611a5a94915060ff191682840152151560051b82010138611c96565b919082519283825260005b848110611d38575050826000602080949584010152601f8019910116010190565b80602080928401015182828601015201611d17565b600435906001600160a01b03821682036119e357565b15611d6a57565b60405162461bcd60e51b815260206004820152600e60248201526d27b7363c9037b933b0b734bd32b960911b6044820152606490fd5b8051821015611db45760209160051b010190565b634e487b7160e01b600052603260045260246000fd5b91908201809211611dd757565b634e487b7160e01b600052601160045260246000fd5b60ff6008541615611e3b5760125442108015611e41575b611e3b576006548015159182611e25575b5050611e2057600190565b600090565b611e33919250600754611dca565b113880611e15565b50600090565b506013544211611e04565b81810292918115918404141715611dd757565b15611e6657565b60405162461bcd60e51b8152602060048201526014602482015273125b9cdd59999a58da595b9d081c185e5b595b9d60621b6044820152606490fd5b91908203918211611dd757565b3d15611eda573d90611ec082611981565b91611ece6040519384611960565b82523d6000602084013e565b606090565b6000546001600160a01b03163303611ef357565b63118cdaa760e01b6000523360045260246000fdfec2575a0e9e593c00f959f8c92f12db2869c3395a3b0502d05e2516446f71f85bd7b6990105719101dabeb77144f2a3385c8033acd3af97e9423a695e81ad1eb56e1540171b6c0c960b71a7020d9f60077f6af931a8bbf590da0223dacf75c7afa164736f6c634300081c000a",
  "linkReferences": {},
  "deployedLinkReferences": {}
}