{
  "_format": "hh-sol-artifact-1",
  "contractName": "EventTicketNFT",
  "sourceName": "contracts/EventTicketNFT.sol",
  "abi": [
    {
      "inputs": [
        {
          "internalType": "string",
          "name": "_name",
          "type": "string"
        },
        {
          "internalType": "string",
          "name": "_symbol",
          "type": "string"
        },
        {
          "internalType": "address",
          "name": "_eventContract",
          "type": "address"
        },
        {
          "internalType": "address",
          "name": "_owner",
          "type": "address"
        }
      ],
      "stateMutability": "nonpayable",
      "type": "constructor"
    },
    {
      "inputs": [],
      "name": "ERC721EnumerableForbiddenBatchMint",
      "type": "error"
    },
    {
      "inputs": [
        {
          "internalType": "address",
          "name": "sender",
          "type": "address"
        },
        {
          "internalType": "uint256",
          "name": "tokenId",
          "type": "uint256"
        },
        {
          "internalType": "address",
          "name": "owner",
          "type": "address"
        }
      ],
      "name": "ERC721IncorrectOwner",
      "type": "error"
    },
    {
      "inputs": [
        {
          "internalType": "address",
          "name": "operator",
          "type": "address"
        },
        {
          "internalType": "uint256",
          "name": "tokenId",
          "type": "uint256"
        }
      ],
      "name": "ERC721InsufficientApproval",
      "type": "error"
    },
    {
      "inputs": [
        {
          "internalType": "address",
          "name": "approver",
          "type": "address"
        }
      ],
      "name": "ERC721InvalidApprover",
      "type": "error"
    },
    {
      "inputs": [
        {
          "internalType": "address",
          "name": "operator",
          "type": "address"
        }
      ],
      "name": "ERC721InvalidOperator",
      "type": "error"
    },
    {
      "inputs": [
        {
          "internalType": "address",
          "name": "owner",
          "type": "address"
        }
      ],
      "name": "ERC721InvalidOwner",
      "type": "error"
    },
    {
      "inputs": [
        {
          "internalType": "address",
          "name": "receiver",
          "type": "address"
        }
      ],
      "name": "ERC721InvalidReceiver",
      "type": "error"
    },
    {
      "inputs": [
        {
          "internalType": "address",
          "name": "sender",
          "type": "address"
        }
      ],
      "name": "ERC721InvalidSender",
      "type": "error"
    },
    {
      "inputs": [
        {
          "internalType": "uint256",
          "name": "tokenId",
          "type": "uint256"
        }
      ],
      "name": "ERC721NonexistentToken",
      "type": "error"
    },
    {
      "inputs": [
        {
          "internalType": "address",
          "name": "owner",
          "type": "address"
        },
        {
          "internalType": "uint256",
          "name": "index",
          "type": "uint256"
        }
      ],
      "name": "ERC721OutOfBoundsIndex",
      "type": "error"
    },
    {
      "inputs": [
        {
          "internalType": "address",
          "name": "owner",
          "type": "address"
        }
      ],
      "name": "OwnableInvalidOwner",
      "type": "error"
    },
    {
      "inputs": [
        {
          "internalType": "address",
          "name": "account",
          "type": "address"
        }
      ],
      "name": "OwnableUnauthorizedAccount",
      "type": "error"
    },
    {
      "inputs": [],
      "name": "ReentrancyGuardReentrantCall",
      "type": "error"
    },
    {
      "anonymous": false,
      "inputs": [
        {
          "indexed": true,
          "internalType": "address",
          "name": "owner",
          "type": "address"
        },
        {
          "indexed": true,
          "internalType": "address",
          "name": "approved",
          "type": "address"
        },
        {
          "indexed": true,
          "internalType": "uint256",
          "name": "tokenId",
          "type": "uint256"
        }
      ],
      "name": "Approval",
      "type": "event"
    },
    {
      "anonymous": false,
      "inputs": [
        {
          "indexed": true,
          "internalType": "address",
          "name": "owner",
          "type": "address"
        },
        {
          "indexed": true,
          "internalType": "address",
          "name": "operator",
          "type": "address"
        },
        {
          "indexed": false,
          "internalType": "bool",
          "name": "approved",
          "type": "bool"
        }
      ],
      "name": "ApprovalForAll",
      "type": "event"
    },
    {
      "anonymous": false,
      "inputs": [
        {
          "indexed": false,
          "internalType": "uint256",
          "name": "_fromTokenId",
          "type": "uint256"
        },
        {
          "indexed": false,
          "internalType": "uint256",
          "name": "_toTokenId",
          "type": "uint256"
        }
      ],
      "name": "BatchMetadataUpdate",
      "type": "event"
    },
    {
      "anonymous": false,
      "inputs": [
        {
          "indexed": false,
          "internalType": "uint256",
          "name": "_tokenId",
          "type": "uint256"
        }
      ],
      "name": "MetadataUpdate",
      "type": "event"
    },
    {
      "anonymous": false,
      "inputs": [
        {
          "indexed": true,
          "internalType": "address",
          "name": "previousOwner",
          "type": "address"
        },
        {
          "indexed": true,
          "internalType": "address",
          "name": "newOwner",
          "type": "address"
        }
      ],
      "name": "OwnershipTransferred",
      "type": "event"
    },
    {
      "anonymous": false,
      "inputs": [
        {
          "indexed": true,
          "internalType": "uint256",
          "name": "tokenId",
          "type": "uint256"
        },
        {
          "indexed": true,
          "internalType": "address",
          "name": "buyer",
          "type": "address"
        },
        {
          "indexed": false,
          "internalType": "uint256",
          "name": "categoryId",
          "type": "uint256"
        }
      ],
      "name": "TicketMinted",
      "type": "event"
    },
    {
      "anonymous": false,
      "inputs": [
        {
          "indexed": true,
          "internalType": "uint256",
          "name": "tokenId",
          "type": "uint256"
        }
      ],
      "name": "TicketUsed",
      "type": "event"
    },
    {
      "anonymous": false,
      "inputs": [
        {
          "indexed": true,
          "internalType": "address",
          "name": "from",
          "type": "address"
        },
        {
          "indexed": true,
          "internalType": "address",
          "name": "to",
          "type": "address"
        },
        {
          "indexed": true,
          "internalType": "uint256",
          "name": "tokenId",
          "type": "uint256"
        }
      ],
      "name": "Transfer",
      "type": "event"
    },
    {
      "inputs": [],
      "name": "ROYALTY_FEE",
      "outputs": [
        {
          "internalType": "uint256",
          "name": "",
          "type": "uint256"
        }
      ],
      "stateMutability": "view",
      "type": "function"
    },
    {
      "inputs": [
        {
          "internalType": "address",
          "name": "to",
          "type": "address"
        },
        {
          "internalType": "uint256",
          "name": "tokenId",
          "type": "uint256"
        }
      ],
      "name": "approve",
      "outputs": [],
      "stateMutability": "nonpayable",
      "type": "function"
    },
    {
      "inputs": [
        {
          "internalType": "address",
          "name": "owner",
          "type": "address"
        }
      ],
      "name": "balanceOf",
      "outputs": [
        {
          "internalType": "uint256",
          "name": "",
          "type": "uint256"
        }
      ],
      "stateMutability": "view",
      "type": "function"
    },
    {
      "inputs": [
        {
          "internalType": "address",
          "name": "to",
          "type": "address"
        },
        {
          "internalType": "string[]",
          "name": "_tokenURIs",
          "type": "string[]"
        },
        {
          "internalType": "uint256",
          "name": "categoryId",
          "type": "uint256"
        }
      ],
      "name": "batchMintTickets",
      "outputs": [
        {
          "internalType": "uint256[]",
          "name": "",
          "type": "uint256[]"
        }
      ],
      "stateMutability": "nonpayable",
      "type": "function"
    },
    {
      "inputs": [],
      "name": "eventContract",
      "outputs": [
        {
          "internalType": "address",
          "name": "",
          "type": "address"
        }
      ],
      "stateMutability": "view",
      "type": "function"
    },
    {
      "inputs": [
        {
          "internalType": "uint256",
          "name": "tokenId",
          "type": "uint256"
        }
      ],
      "name": "getApproved",
      "outputs": [
        {
          "internalType": "address",
          "name": "",
          "type": "address"
        }
      ],
      "stateMutability": "view",
      "type": "function"
    },
    {
      "inputs": [
        {
          "internalType": "uint256",
          "name": "tokenId",
          "type": "uint256"
        }
      ],
      "name": "getTicket",
      "outputs": [
        {
          "components": [
            {
              "internalType": "uint256",
              "name": "tokenId",
              "type": "uint256"
            },
            {
              "internalType": "address",
              "name": "originalBuyer",
              "type": "address"
            },
            {
              "internalType": "uint256",
              "name": "mintedAt",
              "type": "uint256"
            },
            {
              "internalType": "uint256",
              "name": "categoryId",
              "type": "uint256"
            },
            {
              "internalType": "bool",
              "name": "isUsed",
              "type": "bool"
            }
          ],
          "internalType": "struct EventTicketNFT.Ticket",
          "name": "",
          "type": "tuple"
        }
      ],
      "stateMutability": "view",
      "type": "function"
    },
    {
      "inputs": [
        {
          "internalType": "address",
          "name": "owner",
          "type": "address"
        }
      ],
      "name": "getTicketsOfOwner",
      "outputs": [
        {
          "internalType": "uint256[]",
          "name": "",
          "type": "uint256[]"
        }
      ],
      "stateMutability": "view",
      "type": "function"
    },
    {
      "inputs": [
        {
          "internalType": "address",
          "name": "owner",
          "type": "address"
        },
        {
          "internalType": "address",
          "name": "operator",
          "type": "address"
        }
      ],
      "name": "isApprovedForAll",
      "outputs": [
        {
          "internalType": "bool",
          "name": "",
          "type": "bool"
        }
      ],
      "stateMutability": "view",
      "type": "function"
    },
    {
      "inputs": [
        {
          "internalType": "uint256",
          "name": "tokenId",
          "type": "uint256"
        }
      ],
      "name": "isTicketUsed",
      "outputs": [
        {
          "internalType": "bool",
          "name": "",
          "type": "bool"
        }
      ],
      "stateMutability": "view",
      "type": "function"
    },
    {
      "inputs": [
        {
          "internalType": "address",
          "name": "to",
          "type": "address"
        },
        {
          "internalType": "string",
          "name": "_tokenURI",
          "type": "string"
        },
        {
          "internalType": "uint256",
          "name": "categoryId",
          "type": "uint256"
        }
      ],
      "name": "mintTicket",
      "outputs": [
        {
          "internalType": "uint256",
          "name": "",
          "type": "uint256"
        }
      ],
      "stateMutability": "nonpayable",
      "type": "function"
    },
    {
      "inputs": [],
      "name": "name",
      "outputs": [
        {
          "internalType": "string",
          "name": "",
          "type": "string"
        }
      ],
      "stateMutability": "view",
      "type": "function"
    },
    {
      "inputs": [],
      "name": "owner",
      "outputs": [
        {
          "internalType": "address",
          "name": "",
          "type": "address"
        }
      ],
      "stateMutability": "view",
      "type": "function"
    },
    {
      "inputs": [
        {
          "internalType": "uint256",
          "name": "tokenId",
          "type": "uint256"
        }
      ],
      "name": "ownerOf",
      "outputs": [
        {
          "internalType": "address",
          "name": "",
          "type": "address"
        }
      ],
      "stateMutability": "view",
      "type": "function"
    },
    {
      "inputs": [
        {
          "internalType": "uint256",
          "name": "quantity",
          "type": "uint256"
        },
        {
          "internalType": "uint256",
          "name": "categoryId",
          "type": "uint256"
        },
        {
          "internalType": "string[]",
          "name": "_tokenURIs",
          "type": "string[]"
        }
      ],
      "name": "purchaseTickets",
      "outputs": [
        {
          "internalType": "uint256[]",
          "name": "",
          "type": "uint256[]"
        }
      ],
      "stateMutability": "payable",
      "type": "function"
    },
    {
      "inputs": [],
      "name": "renounceOwnership",
      "outputs": [],
      "stateMutability": "nonpayable",
      "type": "function"
    },
    {
      "inputs": [
        {
          "internalType": "uint256",
          "name": "_tokenId",
          "type": "uint256"
        },
        {
          "internalType": "uint256",
          "name": "_salePrice",
          "type": "uint256"
        }
      ],
      "name": "royaltyInfo",
      "outputs": [
        {
          "internalType": "address",
          "name": "",
          "type": "address"
        },
        {
          "internalType": "uint256",
          "name": "",
          "type": "uint256"
        }
      ],
      "stateMutability": "view",
      "type": "function"
    },
    {
      "inputs": [
        {
          "internalType": "address",
          "name": "from",
          "type": "address"
        },
        {
          "internalType": "address",
          "name": "to",
          "type": "address"
        },
        {
          "internalType": "uint256",
          "name": "tokenId",
          "type": "uint256"
        }
      ],
      "name": "safeTransferFrom",
      "outputs": [],
      "stateMutability": "nonpayable",
      "type": "function"
    },
    {
      "inputs": [
        {
          "internalType": "address",
          "name": "from",
          "type": "address"
        },
        {
          "internalType": "address",
          "name": "to",
          "type": "address"
        },
        {
          "internalType": "uint256",
          "name": "tokenId",
          "type": "uint256"
        },
        {
          "internalType": "bytes",
          "name": "data",
          "type": "bytes"
        }
      ],
      "name": "safeTransferFrom",
      "outputs": [],
      "stateMutability": "nonpayable",
      "type": "function"
    },
    {
      "inputs": [
        {
          "internalType": "address",
          "name": "operator",
          "type": "address"
        },
        {
          "internalType": "bool",
          "name": "approved",
          "type": "bool"
        }
      ],
      "name": "setApprovalForAll",
      "outputs": [],
      "stateMutability": "nonpayable",
      "type": "function"
    },
    {
      "inputs": [
        {
          "internalType": "bytes4",
          "name": "interfaceId",
          "type": "bytes4"
        }
      ],
      "name": "supportsInterface",
      "outputs": [
        {
          "internalType": "bool",
          "name": "",
          "type": "bool"
        }
      ],
      "stateMutability": "view",
      "type": "function"
    },
    {
      "inputs": [],
      "name": "symbol",
      "outputs": [
        {
          "internalType": "string",
          "name": "",
          "type": "string"
        }
      ],
      "stateMutability": "view",
      "type": "function"
    },
    {
      "inputs": [
        {
          "internalType": "uint256",
          "name": "",
          "type": "uint256"
        }
      ],
      "name": "tickets",
      "outputs": [
        {
          "internalType": "uint256",
          "name": "tokenId",
          "type": "uint256"
        },
        {
          "internalType": "address",
          "name": "originalBuyer",
          "type": "address"
        },
        {
          "internalType": "uint256",
          "name": "mintedAt",
          "type": "uint256"
        },
        {
          "internalType": "uint256",
          "name": "categoryId",
          "type": "uint256"
        },
        {
          "internalType": "bool",
          "name": "isUsed",
          "type": "bool"
        }
      ],
      "stateMutability": "view",
      "type": "function"
    },
    {
      "inputs": [
        {
          "internalType": "uint256",
          "name": "index",
          "type": "uint256"
        }
      ],
      "name": "tokenByIndex",
      "outputs": [
        {
          "internalType": "uint256",
          "name": "",
          "type": "uint256"
        }
      ],
      "stateMutability": "view",
      "type": "function"
    },
    {
      "inputs": [
        {
          "internalType": "address",
          "name": "owner",
          "type": "address"
        },
        {
          "internalType": "uint256",
          "name": "index",
          "type": "uint256"
        }
      ],
      "name": "tokenOfOwnerByIndex",
      "outputs": [
        {
          "internalType": "uint256",
          "name": "",
          "type": "uint256"
        }
      ],
      "stateMutability": "view",
      "type": "function"
    },
    {
      "inputs": [
        {
          "internalType": "uint256",
          "name": "tokenId",
          "type": "uint256"
        }
      ],
      "name": "tokenURI",
      "outputs": [
        {
          "internalType": "string",
          "name": "",
          "type": "string"
        }
      ],
      "stateMutability": "view",
      "type": "function"
    },
    {
      "inputs": [],
      "name": "totalSupply",
      "outputs": [
        {
          "internalType": "uint256",
          "name": "",
          "type": "uint256"
        }
      ],
      "stateMutability": "view",
      "type": "function"
    },
    {
      "inputs": [
        {
          "internalType": "address",
          "name": "from",
          "type": "address"
        },
        {
          "internalType": "address",
          "name": "to",
          "type": "address"
        },
        {
          "internalType": "uint256",
          "name": "tokenId",
          "type": "uint256"
        }
      ],
      "name": "transferFrom",
      "outputs": [],
      "stateMutability": "nonpayable",
      "type": "function"
    },
    {
      "inputs": [
        {
          "internalType": "address",
          "name": "newOwner",
          "type": "address"
        }
      ],
      "name": "transferOwnership",
      "outputs": [],
      "stateMutability": "nonpayable",
      "type": "function"
    },
    {
      "inputs": [
        {
          "internalType": "uint256",
          "name": "tokenId",
          "type": "uint256"
        }
      ],
      "name": "useTicket",
      "outputs": [],
      "stateMutability": "nonpayable",
      "type": "function"
    },
    {
      "inputs": [
        {
          "internalType": "uint256",
          "name": "",
          "type": "uint256"
        }
      ],
      "name": "usedTickets",
      "outputs": [
        {
          "internalType": "bool",
          "name": "",
          "type": "bool"
        }
      ],
      "stateMutability": "view",
      "type": "function"
    }
  ],
  "bytecode": "0x6080604052346103d15761245980380380610019816103d6565b9283398101906080818303126103d15780516001600160401b0381116103d157826100459183016103fb565b602082015190926001600160401b0382116103d1576100659183016103fb565b9061007e606061007760408401610466565b9201610466565b83516001600160401b0381116102dc57600054600181811c911680156103c7575b60208210146102bc57601f8111610363575b50602094601f82116001146102fd579481929394956000926102f2575b50508160011b916000199060031b1c1916176000555b82516001600160401b0381116102dc57600154600181811c911680156102d2575b60208210146102bc57601f8111610257575b506020601f82116001146101f057819293946000926101e5575b50508160011b916000199060031b1c1916176001555b6001600160a01b03169081156101cf57600b80546001600160a01b03198116841790915560405192906001600160a01b03167f8be0079c531659141344cd1fd0a4f28419497f9722a3daafe3b4186f6b6457e0600080a36001600c55600d80546001600160a01b0319166001600160a01b0392909216919091179055611fde908161047b8239f35b631e4fbdf760e01b600052600060045260246000fd5b015190503880610131565b601f198216906001600052806000209160005b81811061023f57509583600195969710610226575b505050811b01600155610147565b015160001960f88460031b161c19169055388080610218565b9192602060018192868b015181550194019201610203565b60016000527fb10e2d527612073b26eecdfd717e6a320cf44b4afac2b0732d9fcbe2b7fa0cf6601f830160051c810191602084106102b2575b601f0160051c01905b8181106102a65750610117565b60008155600101610299565b9091508190610290565b634e487b7160e01b600052602260045260246000fd5b90607f1690610105565b634e487b7160e01b600052604160045260246000fd5b0151905038806100ce565b601f1982169560008052806000209160005b88811061034b57508360019596979810610332575b505050811b016000556100e4565b015160001960f88460031b161c19169055388080610324565b9192602060018192868501518155019401920161030f565b600080527f290decd9548b62a8d60345a988386fc84ba6bc95484008f6362f93160ef3e563601f830160051c810191602084106103bd575b601f0160051c01905b8181106103b157506100b1565b600081556001016103a4565b909150819061039b565b90607f169061009f565b600080fd5b6040519190601f01601f191682016001600160401b038111838210176102dc57604052565b81601f820112156103d1578051906001600160401b0382116102dc5761042a601f8301601f19166020016103d6565b92828452602083830101116103d15760005b82811061045157505060206000918301015290565b8060208092840101518282870101520161043c565b51906001600160a01b03821682036103d15756fe608080604052600436101561001357600080fd5b600090813560e01c90816301ffc9a714610f795750806306fdde0314610ed4578063081812fc14610e97578063095ea7b314610daf57806318160ddd14610d9157806323b872dd14610d795780632660644814610bed5780632a55205a14610b095780632cd1d35c14610ad85780632f745c5914610ab0578063335477fc14610a9357806339ea739c1461097357806342842e0e146109435780634f6ccce7146108f357806350b44712146108905780636352211e1461085f57806370a0823114610833578063715018a6146107d657806371efdc21146107a75780637dc379fa146106ce57806385fd52f01461066c5780638da5cb5b1461064357806395d89b4114610574578063989b302e1461051d578063a22cb46514610470578063b88d4fde146103fc578063c87b56dd146103c4578063cf7a314114610284578063e274fd241461025b578063e985e9c5146102015763f2fde38b1461017657600080fd5b346101fe5760203660031901126101fe5761018f611073565b610197611914565b6001600160a01b031680156101ea57600b80546001600160a01b0319811683179091556001600160a01b03167f8be0079c531659141344cd1fd0a4f28419497f9722a3daafe3b4186f6b6457e08380a380f35b631e4fbdf760e01b82526004829052602482fd5b80fd5b50346101fe5760403660031901126101fe57604061021d611073565b9161022661108e565b9260018060a01b031681526005602052209060018060a01b0316600052602052602060ff604060002054166040519015158152f35b50346101fe57806003193601126101fe57600d546040516001600160a01b039091168152602090f35b50346101fe5760603660031901126101fe5761029e611073565b60243567ffffffffffffffff81116103c057906020927f5c1c9352d51031acc9a558d7cdcca15b0ce5fe4f46d7315cca355248175b0a37846102e761032695369060040161119d565b926103b16044359161030460018060a01b03600d541633146116dd565b600e54978896610313886118b8565b600e55610320888a61193d565b87611c6a565b600460405191610335836110de565b8783526001600160a01b0398891686840181815242604080870191825260608701898152608088018681528d8752600f8c529190952096518755915160018701805491909d166001600160a01b031990911617909b55995160028501559051600384015597519101805460ff191691151560ff16919091179055565b604051908152a3604051908152f35b8280fd5b50346101fe5760203660031901126101fe576103f86103e4600435611f05565b604051918291602083526020830190611034565b0390f35b50346101fe5760803660031901126101fe57610416611073565b61041e61108e565b906044356064359267ffffffffffffffff841161046c573660238501121561046c57610457610469943690602481600401359101611166565b926104638383836112ae565b33611ddc565b80f35b8480fd5b50346101fe5760403660031901126101fe5761048a611073565b6024359081151590818303610519576001600160a01b0316918215610505576104d6903385526005602052604085208460005260205260406000209060ff801983541691151516179055565b6040519081527f17307eab39ab6107e8899845ad3d59bd9653f200f220920489ca2b5937696c3160203392a380f35b630b61174360e31b84526004839052602484fd5b8380fd5b50346101fe5760603660031901126101fe57610537611073565b906024359067ffffffffffffffff82116101fe576103f86105688461055f36600487016111bb565b6044359161171f565b6040519182918261123a565b50346101fe57806003193601126101fe5760405190806001549061059782611274565b808552916001811690811561061c57506001146105bf575b6103f8846103e481860382611110565b600181527fb10e2d527612073b26eecdfd717e6a320cf44b4afac2b0732d9fcbe2b7fa0cf6939250905b808210610602575090915081016020016103e4826105af565b9192600181602092548385880101520191019092916105e9565b60ff191660208087019190915292151560051b850190920192506103e491508390506105af565b50346101fe57806003193601126101fe57600b546040516001600160a01b039091168152602090f35b50346101fe5760203660031901126101fe57610686611073565b61068f81611661565b9061069982611697565b925b8281106106b057604051806103f8868261123a565b806106bd600192846115dc565b6106c782876116c9565b520161069b565b50346101fe5760203660031901126101fe57604060a09160043581608084516106f6816110de565b82815282602082015282868201528260608201520152610726600180861b0361071e836118dd565b16151561157f565b8152600f6020522060405161073a816110de565b815491828252600180851b036001820154166020830190815260028201549060408401918252608060ff60046003860154956060880196875201541694019315158452604051948552600180871b0390511660208501525160408401525160608301525115156080820152f35b50346101fe5760203660031901126101fe5760ff60406020926004358152601084522054166040519015158152f35b50346101fe57806003193601126101fe576107ef611914565b600b80546001600160a01b0319811690915581906001600160a01b03167f8be0079c531659141344cd1fd0a4f28419497f9722a3daafe3b4186f6b6457e08280a380f35b50346101fe5760203660031901126101fe576020610857610852611073565b611661565b604051908152f35b50346101fe5760203660031901126101fe57602061087e6004356118dd565b6040516001600160a01b039091168152f35b50346101fe5760203660031901126101fe57604060a0916004358152600f60205220805490600180841b0360018201541690600281015460ff60046003840154930154169260405194855260208501526040840152606083015215156080820152f35b50346101fe5760203660031901126101fe576004359060095482101561092d57602061091e83611630565b90549060031b1c604051908152f35b60449163295f44f760e21b825281600452602452fd5b50346101fe57610469610955366110a4565b9060405192610965602085611110565b8584526104638383836112ae565b5060603660031901126101fe5760243560043560443567ffffffffffffffff8111610519576109a69036906004016111bb565b906002600c5414610a84576002600c5580825103610a4a57600d546001600160a01b0316908490823b15610a465760646040518094819363eabd312d60e01b8352336004840152602483015287604483015234905af18015610a3b5793610a1a9392916103f895610a2b575b50503361171f565b6001600c556040519182918261123a565b81610a3591611110565b38610a12565b6040513d86823e3d90fd5b5080fd5b60405162461bcd60e51b81526020600482015260126024820152710aaa49240c6deeadce840dad2e6dac2e8c6d60731b6044820152606490fd5b633ee5aeb560e01b8452600484fd5b50346101fe57806003193601126101fe5760206040516101f48152f35b50346101fe5760403660031901126101fe576020610857610acf611073565b602435906115dc565b50346101fe5760203660031901126101fe5760ff6004604060209382358152600f8552200154166040519015158152f35b50346101fe5760403660031901126101fe5760243590610b356001600160a01b0361071e6004356118dd565b600d54604051636120326560e01b815290602090829060049082906001600160a01b03165afa908115610be2578291610bb3575b506101f48302928084046101f41490151715610b9f57604080516001600160a01b03909216825261271090930460208201529050f35b634e487b7160e01b82526011600452602482fd5b610bd5915060203d602011610bdb575b610bcd8183611110565b8101906115bd565b38610b69565b503d610bc3565b6040513d84823e3d90fd5b50346101fe5760203660031901126101fe57600435610c166001600160a01b0361071e836118dd565b808252600f60205260ff600460408420015416610d4557600d54604051636120326560e01b815290602090829060049082906001600160a01b03165afa908115610d3a578391610d1b575b506001600160a01b031633148015610d07575b15610cd157808252600f60205260046040832001600160ff19825416179055808252601060205260408220600160ff198254161790557f1f5d53e38fbc5a40092861e993062e74fb6dc7acef58356c7b55aa1afd8b35018280a280f35b60405162461bcd60e51b815260206004820152600e60248201526d139bdd08185d5d1a1bdc9a5e995960921b6044820152606490fd5b50600b546001600160a01b03163314610c74565b610d34915060203d602011610bdb57610bcd8183611110565b38610c61565b6040513d85823e3d90fd5b60405162461bcd60e51b815260206004820152600c60248201526b105b1c9958591e481d5cd95960a21b6044820152606490fd5b50346101fe57610469610d8b366110a4565b916112ae565b50346101fe57806003193601126101fe576020600954604051908152f35b50346101fe5760403660031901126101fe57610dc9611073565b602435610dd5816118dd565b33151580610e84575b80610e59575b610e465781906001600160a01b0384811691167f8c5be1e5ebec7d5bd14f71427d1e84f3dd0314c0f7b2291e5b200ac8c7c3b9258680a4825260046020526040822080546001600160a01b0319166001600160a01b0390921691909117905580f35b63a9fbf51f60e01b845233600452602484fd5b506001600160a01b038116845260056020908152604080862033875290915284205460ff1615610de4565b506001600160a01b038116331415610dde565b50346101fe5760203660031901126101fe57602090600435610eb8816118dd565b50815260048252604060018060a01b0391205416604051908152f35b50346101fe57806003193601126101fe576040519080805490610ef682611274565b808552916001811690811561061c5750600114610f1d576103f8846103e481860382611110565b8080527f290decd9548b62a8d60345a988386fc84ba6bc95484008f6362f93160ef3e563939250905b808210610f5f575090915081016020016103e4826105af565b919260018160209254838588010152019101909291610f46565b905034610a46576020366003190112610a465760043563ffffffff60e01b81168091036103c0576020925063152a902d60e11b8114908115610fbd575b5015158152f35b63780e9d6360e01b811491508115610fd7575b5038610fb6565b632483248360e11b811491508115610ff1575b5038610fd0565b6380ac58cd60e01b811491508115611023575b8115611012575b5038610fea565b6301ffc9a760e01b1490503861100b565b635b5e139f60e01b81149150611004565b919082518082526020808301940160005b828110611063575050600081602094950152601f8019910116010190565b8181015186820152602001611045565b600435906001600160a01b038216820361108957565b600080fd5b602435906001600160a01b038216820361108957565b6060906003190112611089576004356001600160a01b038116810361108957906024356001600160a01b0381168103611089579060443590565b60a0810190811067ffffffffffffffff8211176110fa57604052565b634e487b7160e01b600052604160045260246000fd5b90601f8019910116810190811067ffffffffffffffff8211176110fa57604052565b67ffffffffffffffff81116110fa5760051b60200190565b67ffffffffffffffff81116110fa57601f01601f191660200190565b9291926111728261114a565b916111806040519384611110565b829481845281830111611089578281602093846000960137010152565b9080601f83011215611089578160206111b893359101611166565b90565b9080601f830112156110895781356111d281611132565b926111e06040519485611110565b81845260208085019260051b820101918383116110895760208201905b83821061120c57505050505090565b813567ffffffffffffffff81116110895760209161122f8784809488010161119d565b8152019101906111fd565b602060408183019282815284518094520192019060005b81811061125e5750505090565b8251845260209384019390920191600101611251565b90600182811c921680156112a4575b602083101461128e57565b634e487b7160e01b600052602260045260246000fd5b91607f1691611283565b9091906001600160a01b0383168015611569576000838152600260205260408120546001600160a01b031694331515806114da575b50851580156114a5575b83835260036020526040832060018154019055858352600260205260408320846bffffffffffffffffffffffff60a01b8254161790558584887fddf252ad1be2c89b69c2b068fc378daa952ba7f163c4a11628f55a4df523b3ef8680a41561142857600954858352600a602052806040842055600160401b81101561141457856113808260016113999401600955611630565b90919082549060031b91821b91600019901b1916179055565b8286036113d3575b5050506001600160a01b03168083036113b957505050565b6364283d7b60e01b60005260045260245260445260646000fd5b6113dc90611661565b600019810192908311610b9f5790604091815260076020528181208382526020528482822055848152600860205220553880806113a1565b634e487b7160e01b83526041600452602483fd5b8583146113995761143886611661565b85835260086020526040832054908784526007602052604084209181810361147a575b5086845260086020528360408120558352602052816040812055611399565b818552826020526040852054818652836020528060408720558552600860205260408520553861145b565b600086815260046020526040902080546001600160a01b031916905586835260036020526040832080546000190190556112ed565b8061151a575b156114eb57386112e3565b84828761150457602491637e27328960e01b8252600452fd5b60449163177e802f60e01b825233600452602452fd5b503386148015611548575b806114e05750848252600460205260408220546001600160a01b031633146114e0565b5085825260056020908152604080842033855290915282205460ff16611525565b633250574960e11b600052600060045260246000fd5b1561158657565b60405162461bcd60e51b815260206004820152600f60248201526e151bdad95b881b9bdd08195e1a5cdd608a1b6044820152606490fd5b9081602091031261108957516001600160a01b03811681036110895790565b6115e581611661565b8210156116115760018060a01b0316600052600760205260406000209060005260205260406000205490565b63295f44f760e21b60005260018060a01b031660045260245260446000fd5b60095481101561164b57600960005260206000200190600090565b634e487b7160e01b600052603260045260246000fd5b6001600160a01b0316801561168157600052600360205260406000205490565b6322718ad960e21b600052600060045260246000fd5b906116a182611132565b6116ae6040519182611110565b82815280926116bf601f1991611132565b0190602036910137565b805182101561164b5760209160051b010190565b156116e457565b60405162461bcd60e51b815260206004820152601360248201527213db9b1e48195d995b9d0818dbdb9d1c9858dd606a1b6044820152606490fd5b9290919261173860018060a01b03600d541633146116dd565b825180151590816118ac575b50156118745761175683929351611697565b6001600160a01b0382169260005b815181101561186b5760019085600e5461177d816118b8565b600e5561178a818861193d565b61179e61179784876116c9565b5182611c6a565b61182f6040516117ad816110de565b8281526004602082018581528d604084014281526060850191825260808501926000845287600052600f6020526040600020955186558a8060a01b039051168a8601908b8060a01b03166bffffffffffffffffffffffff60a01b82541617905551600285015551600384015551151591019060ff801983541691151516179055565b8061183a84886116c9565b527f5c1c9352d51031acc9a558d7cdcca15b0ce5fe4f46d7315cca355248175b0a3760206040518c8152a301611764565b50909450505050565b60405162461bcd60e51b815260206004820152601060248201526f496e76616c6964207175616e7469747960801b6044820152606490fd5b600a9150111538611744565b60001981146118c75760010190565b634e487b7160e01b600052601160045260246000fd5b6000818152600260205260409020546001600160a01b0316908115611900575090565b637e27328960e01b60005260045260246000fd5b600b546001600160a01b0316330361192857565b63118cdaa760e01b6000523360045260246000fd5b906020906040519061194f8383611110565b600082526001600160a01b0384169384156115695760008281526002855260408120546001600160a01b031680158015929083611c36575b8882526003885260408083208054600101905586835260028952822080546001600160a01b0319168a1790558589847fddf252ad1be2c89b69c2b068fc378daa952ba7f163c4a11628f55a4df523b3ef8580a415611bc057600954858252600a8852806040832055600160401b811015611bac5785611380826001611a0f9401600955611630565b878203611b5c575b5050611b46573b611a29575b50505050565b91611a6791819495936040519384928392630a85bd0160e11b8452336004850152600060248501526044840152608060648401526084830190611034565b03816000885af18091600091611b08575b5090611acf5750503d15611ac8573d611a908161114a565b90611a9e6040519283611110565b81523d60008383013e5b80519182611ac55783633250574960e11b60005260045260246000fd5b01fd5b6060611aa8565b909291506001600160e01b03191663757a42ff60e11b01611af4575038808080611a23565b633250574960e11b60005260045260246000fd5b8481813d8311611b3f575b611b1d8183611110565b81010312610a465751906001600160e01b0319821682036101fe575038611a78565b503d611b13565b6339e3563760e11b600052600060045260246000fd5b611b6584611661565b600019810191908211611b9857808960409252600789528181208382528952868282205586815260088952205538611a17565b634e487b7160e01b81526011600452602490fd5b634e487b7160e01b82526041600452602482fd5b818814611a0f57611bd082611661565b85825260088852604082205490838352600789526040832091818103611c0e575b508683526008895282604081205582528752806040812055611a0f565b818452828a526040842054818552838b52806040862055845260088a52604084205538611bf1565b600086815260046020526040902080546001600160a01b031916905582825260038852604082208054600019019055611987565b9190918060005260066020526040600020835167ffffffffffffffff81116110fa57611c968254611274565b601f8111611d94575b506020601f8211600114611d0857908060209493927ff8e1a15aba9398e019f0b49df1a4fde98ee17ae345cb5f6b5e2c27f5033e8ce79697600092611cfd575b50508160011b916000199060031b1c19161790555b604051908152a1565b015190503880611cdf565b601f1982169583600052816000209660005b818110611d7c575096600192849260209796957ff8e1a15aba9398e019f0b49df1a4fde98ee17ae345cb5f6b5e2c27f5033e8ce7999a10611d63575b505050811b019055611cf4565b015160001960f88460031b161c19169055388080611d56565b83830151895560019098019760209384019301611d1a565b826000526020600020601f830160051c81019160208410611dd2575b601f0160051c01905b818110611dc65750611c9f565b60008155600101611db9565b9091508190611db0565b823b611dea575b5050505050565b604051630a85bd0160e11b81526001600160a01b039182166004820152918116602483015260448201939093526080606482015291169160209082908190611e36906084830190611034565b03816000865af18091600091611ec2575b5090611ea057503d15611e99573d611e5e8161114a565b90611e6c6040519283611110565b81523d6000602083013e5b80519081611e945782633250574960e11b60005260045260246000fd5b602001fd5b6060611e77565b6001600160e01b03191663757a42ff60e11b01611af457503880808080611de3565b6020813d602011611efd575b81611edb60209383611110565b81010312610a465751906001600160e01b0319821682036101fe575038611e47565b3d9150611ece565b611f0e816118dd565b506000526006602052604060002060405190816000825492611f2f84611274565b8084529360018116908115611faf5750600114611f68575b50611f5492500382611110565b6000604051611f64602082611110565b5290565b90506000929192526020600020906000915b818310611f93575050906020611f549282010138611f47565b6020919350806001915483858801015201910190918392611f7a565b905060209250611f5494915060ff191682840152151560051b82010138611f4756fea164736f6c634300081c000a",
  "linkReferences": {},
  "deployedLinkReferences": {}
}