{
  "_format": "hh-sol-artifact-1",
  "contractName": "EventFactory",
  "sourceName": "contracts/EventFactory.sol",
  "abi": [
    {
      "inputs": [
        {
          "internalType": "address",
          "name": "_platformFeeRecipient",
          "type": "address"
        }
      ],
      "stateMutability": "nonpayable",
      "type": "constructor"
    },
    {
      "anonymous": false,
      "inputs": [
        {
          "indexed": true,
          "internalType": "uint256",
          "name": "eventId",
          "type": "uint256"
        },
        {
          "indexed": true,
          "internalType": "address",
          "name": "organizer",
          "type": "address"
        },
        {
          "indexed": false,
          "internalType": "address",
          "name": "eventContract",
          "type": "address"
        },
        {
          "indexed": false,
          "internalType": "address",
          "name": "nftContract",
          "type": "address"
        },
        {
          "indexed": false,
          "internalType": "string",
          "name": "title",
          "type": "string"
        }
      ],
      "name": "EventCreated",
      "type": "event"
    },
    {
      "anonymous": false,
      "inputs": [
        {
          "indexed": true,
          "internalType": "uint256",
          "name": "eventId",
          "type": "uint256"
        }
      ],
      "name": "EventDeactivated",
      "type": "event"
    },
    {
      "anonymous": false,
      "inputs": [
        {
          "indexed": false,
          "internalType": "address",
          "name": "newRecipient",
          "type": "address"
        }
      ],
      "name": "PlatformFeeRecipientUpdated",
      "type": "event"
    },
    {
      "anonymous": false,
      "inputs": [
        {
          "indexed": false,
          "internalType": "uint256",
          "name": "newFee",
          "type": "uint256"
        }
      ],
      "name": "PlatformFeeUpdated",
      "type": "event"
    },
    {
      "inputs": [
        {
          "internalType": "string",
          "name": "_title",
          "type": "string"
        },
        {
          "internalType": "string",
          "name": "_description",
          "type": "string"
        },
        {
          "internalType": "uint256",
          "name": "_ticketPrice",
          "type": "uint256"
        },
        {
          "internalType": "uint256",
          "name": "_maxTickets",
          "type": "uint256"
        },
        {
          "internalType": "string",
          "name": "_eventURI",
          "type": "string"
        },
        {
          "internalType": "uint256",
          "name": "_eventStartTime",
          "type": "uint256"
        },
        {
          "internalType": "uint256",
          "name": "_eventEndTime",
          "type": "uint256"
        },
        {
          "internalType": "string",
          "name": "_venue",
          "type": "string"
        },
        {
          "internalType": "string",
          "name": "_nftName",
          "type": "string"
        },
        {
          "internalType": "string",
          "name": "_nftSymbol",
          "type": "string"
        }
      ],
      "name": "createEvent",
      "outputs": [
        {
          "internalType": "uint256",
          "name": "eventId",
          "type": "uint256"
        },
        {
          "internalType": "address",
          "name": "eventContract",
          "type": "address"
        },
        {
          "internalType": "address",
          "name": "nftContract",
          "type": "address"
        }
      ],
      "stateMutability": "nonpayable",
      "type": "function"
    },
    {
      "inputs": [
        {
          "internalType": "uint256",
          "name": "eventId",
          "type": "uint256"
        }
      ],
      "name": "deactivateEvent",
      "outputs": [],
      "stateMutability": "nonpayable",
      "type": "function"
    },
    {
      "inputs": [],
      "name": "emergencyWithdraw",
      "outputs": [],
      "stateMutability": "nonpayable",
      "type": "function"
    },
    {
      "inputs": [],
      "name": "eventCounter",
      "outputs": [
        {
          "internalType": "uint256",
          "name": "",
          "type": "uint256"
        }
      ],
      "stateMutability": "view",
      "type": "function"
    },
    {
      "inputs": [
        {
          "internalType": "uint256",
          "name": "",
          "type": "uint256"
        }
      ],
      "name": "events",
      "outputs": [
        {
          "internalType": "address",
          "name": "eventContract",
          "type": "address"
        },
        {
          "internalType": "address",
          "name": "nftContract",
          "type": "address"
        },
        {
          "internalType": "address",
          "name": "organizer",
          "type": "address"
        },
        {
          "internalType": "string",
          "name": "title",
          "type": "string"
        },
        {
          "internalType": "uint256",
          "name": "createdAt",
          "type": "uint256"
        },
        {
          "internalType": "bool",
          "name": "isActive",
          "type": "bool"
        },
        {
          "internalType": "uint256",
          "name": "ticketsSold",
          "type": "uint256"
        },
        {
          "internalType": "uint256",
          "name": "totalRevenue",
          "type": "uint256"
        }
      ],
      "stateMutability": "view",
      "type": "function"
    },
    {
      "inputs": [],
      "name": "getActiveEvents",
      "outputs": [
        {
          "internalType": "uint256[]",
          "name": "",
          "type": "uint256[]"
        }
      ],
      "stateMutability": "view",
      "type": "function"
    },
    {
      "inputs": [],
      "name": "getAllEventIds",
      "outputs": [
        {
          "internalType": "uint256[]",
          "name": "",
          "type": "uint256[]"
        }
      ],
      "stateMutability": "view",
      "type": "function"
    },
    {
      "inputs": [
        {
          "internalType": "uint256",
          "name": "eventId",
          "type": "uint256"
        }
      ],
      "name": "getEventDetails",
      "outputs": [
        {
          "components": [
            {
              "internalType": "address",
              "name": "eventContract",
              "type": "address"
            },
            {
              "internalType": "address",
              "name": "nftContract",
              "type": "address"
            },
            {
              "internalType": "address",
              "name": "organizer",
              "type": "address"
            },
            {
              "internalType": "string",
              "name": "title",
              "type": "string"
            },
            {
              "internalType": "uint256",
              "name": "createdAt",
              "type": "uint256"
            },
            {
              "internalType": "bool",
              "name": "isActive",
              "type": "bool"
            },
            {
              "internalType": "uint256",
              "name": "ticketsSold",
              "type": "uint256"
            },
            {
              "internalType": "uint256",
              "name": "totalRevenue",
              "type": "uint256"
            }
          ],
          "internalType": "struct IEventFactory.EventInfo",
          "name": "eventInfo",
          "type": "tuple"
        },
        {
          "internalType": "string",
          "name": "description",
          "type": "string"
        },
        {
          "internalType": "uint256",
          "name": "ticketPrice",
          "type": "uint256"
        },
        {
          "internalType": "uint256",
          "name": "maxTickets",
          "type": "uint256"
        },
        {
          "internalType": "string",
          "name": "eventURI",
          "type": "string"
        },
        {
          "internalType": "uint256",
          "name": "eventStartTime",
          "type": "uint256"
        },
        {
          "internalType": "uint256",
          "name": "eventEndTime",
          "type": "uint256"
        },
        {
          "internalType": "string",
          "name": "venue",
          "type": "string"
        }
      ],
      "stateMutability": "view",
      "type": "function"
    },
    {
      "inputs": [
        {
          "internalType": "address",
          "name": "organizer",
          "type": "address"
        }
      ],
      "name": "getOrganizerEventCount",
      "outputs": [
        {
          "internalType": "uint256",
          "name": "",
          "type": "uint256"
        }
      ],
      "stateMutability": "view",
      "type": "function"
    },
    {
      "inputs": [
        {
          "internalType": "address",
          "name": "organizer",
          "type": "address"
        }
      ],
      "name": "getOrganizerEvents",
      "outputs": [
        {
          "internalType": "uint256[]",
          "name": "",
          "type": "uint256[]"
        }
      ],
      "stateMutability": "view",
      "type": "function"
    },
    {
      "inputs": [
        {
          "internalType": "address",
          "name": "",
          "type": "address"
        }
      ],
      "name": "organizerEventCount",
      "outputs": [
        {
          "internalType": "uint256",
          "name": "",
          "type": "uint256"
        }
      ],
      "stateMutability": "view",
      "type": "function"
    },
    {
      "inputs": [
        {
          "internalType": "address",
          "name": "organizer",
          "type": "address"
        },
        {
          "internalType": "uint256",
          "name": "index",
          "type": "uint256"
        }
      ],
      "name": "organizerEvents",
      "outputs": [
        {
          "internalType": "uint256",
          "name": "",
          "type": "uint256"
        }
      ],
      "stateMutability": "view",
      "type": "function"
    },
    {
      "inputs": [
        {
          "internalType": "address",
          "name": "",
          "type": "address"
        },
        {
          "internalType": "uint256",
          "name": "",
          "type": "uint256"
        }
      ],
      "name": "organizerEventsList",
      "outputs": [
        {
          "internalType": "uint256",
          "name": "",
          "type": "uint256"
        }
      ],
      "stateMutability": "view",
      "type": "function"
    },
    {
      "inputs": [],
      "name": "owner",
      "outputs": [
        {
          "internalType": "address",
          "name": "",
          "type": "address"
        }
      ],
      "stateMutability": "view",
      "type": "function"
    },
    {
      "inputs": [],
      "name": "platformFee",
      "outputs": [
        {
          "internalType": "uint256",
          "name": "",
          "type": "uint256"
        }
      ],
      "stateMutability": "view",
      "type": "function"
    },
    {
      "inputs": [],
      "name": "platformFeeRecipient",
      "outputs": [
        {
          "internalType": "address",
          "name": "",
          "type": "address"
        }
      ],
      "stateMutability": "view",
      "type": "function"
    },
    {
      "inputs": [
        {
          "internalType": "uint256",
          "name": "_fee",
          "type": "uint256"
        }
      ],
      "name": "setPlatformFee",
      "outputs": [],
      "stateMutability": "nonpayable",
      "type": "function"
    },
    {
      "inputs": [
        {
          "internalType": "address",
          "name": "_recipient",
          "type": "address"
        }
      ],
      "name": "setPlatformFeeRecipient",
      "outputs": [],
      "stateMutability": "nonpayable",
      "type": "function"
    },
    {
      "inputs": [
        {
          "internalType": "uint256",
          "name": "eventId",
          "type": "uint256"
        },
        {
          "internalType": "uint256",
          "name": "ticketsSold",
          "type": "uint256"
        },
        {
          "internalType": "uint256",
          "name": "revenue",
          "type": "uint256"
        }
      ],
      "name": "updateEventStats",
      "outputs": [],
      "stateMutability": "nonpayable",
      "type": "function"
    },
    {
      "inputs": [],
      "name": "withdrawPlatformFees",
      "outputs": [],
      "stateMutability": "nonpayable",
      "type": "function"
    },
    {
      "stateMutability": "payable",
      "type": "receive"
    }
  ],
  "bytecode": "0x60803460cd57601f61182f38819003918201601f19168301916001600160401b0383118484101760d25780849260209460405283398101031260cd57516001600160a01b0381169081900360cd5760fa6000558015608857600380546001600160a01b031990811633179091556001805490911691909117905560405161174690816100e98239f35b60405162461bcd60e51b815260206004820152601560248201527f496e76616c69642066656520726563697069656e7400000000000000000000006044820152606490fd5b600080fd5b634e487b7160e01b600052604160045260246000fdfe608080604052600436101561001d575b50361561001b57600080fd5b005b600090813560e01c9081630b086a8b14611380575080630b791430146112d957806312e8e2c3146112415780631871e2431461118857806326232a2e1461116b5780633612280f1461105457806352c55db914611036578063682e54cd14610fc157806370cf676714610f885780638da5cb5b14610f5f578063957a632e14610de7578063aefeba841461077e578063b860bf88146106ac578063d0b7830b146105e4578063db2e21bc1461055f578063e4aa47e3146104d1578063eb13554f146104a8578063ec38d5a0146101dd578063ec894f9a146101865763ff9f59700361000f5734610183576020366003190112610183576001600160a01b036101236113b6565b168152600560205260408120604051918260208354918281520192825260208220915b81811061016d576101698561015d8187038261143d565b6040519182918261154a565b0390f35b8254845260209093019260019283019201610146565b80fd5b5034610183576040366003190112610183576101a06113b6565b6001600160a01b03168152600560205260408120805460243592908310156101835760206101ce84846115e6565b90549060031b1c604051908152f35b5034610183576020366003190112610183576004358160e06040516102018161140b565b8281528260208201528260408201526060808201528260808201528260a08201528260c082015201528015158061049c575b61023c9061164c565b8152600460205260408120604051906102548261140b565b80546001600160a01b0390811683526001820154811660208401908152600283015490911660408401908152939092906102906003840161145e565b91606081019283526004840154926080820193845260ff6005860154169060a083019115158252600760068701549660c0850197885201549560e0840196875260018060a01b038451169560405196637217771760e01b88526004880152858760248173__$14c5493a4b68df4c74769ace6ff8c044c6$__5af49788156104915786928795889589988a9b8b809e6103d7575b505060405161010080825291516001600160a01b03908116838301529e518f166101208201529e51909d166101408f0152516101608e019c909c528c9b61036f906102008e0190611525565b93516101808d01525115156101a08c0152516101c08b0152516101e08a015288810360208a015261039f91611525565b916040880152606087015285810360808701526103bb91611525565b9160a085015260c084015282810360e084015261016991611525565b9a509b509b5096509350965092503d8086893e6103f4818961143d565b87019260e08885031261048d5787516001600160401b038111610489578461041d918a016116f4565b9660208901519360408a01519660608b01516001600160401b0381116104855787610449918d016116f4565b9660808c01519960a08d01519c60c0810151916001600160401b03831161018357506104769291016116f4565b99959796989a999b3880610323565b8980fd5b8680fd5b8580fd5b6040513d88823e3d90fd5b50600254811115610233565b50346101835780600319360112610183576001546040516001600160a01b039091168152602090f35b5034610183576040366003190112610183576104eb6113b6565b6001600160a01b03168082526005602052604082205490919060243590811015610524576040826020946101ce945260058552206115e6565b60405162461bcd60e51b8152602060048201526013602482015272496e646578206f7574206f6620626f756e647360681b6044820152606490fd5b50346101835780600319360112610183578080808060018060a01b036003541661058a813314611614565b47905af16105966116c4565b501561059f5780f35b60405162461bcd60e51b815260206004820152601b60248201527f456d657267656e6379207769746864726177616c206661696c656400000000006044820152606490fd5b503461018357806003193601126101835761060a60018060a01b03600354163314611614565b4780156106715760015482918291829182916001600160a01b03165af161062f6116c4565b50156106385780f35b60405162461bcd60e51b815260206004820152601160248201527015da5d1a191c985dd85b0819985a5b1959607a1b6044820152606490fd5b60405162461bcd60e51b81526020600482015260136024820152724e6f206665657320746f20776974686472617760681b6044820152606490fd5b50346101835760603660031901126101835760043580151580610772575b6106d39061164c565b808252600460205260408220546001600160a01b03163303610737578082526004602052602435600660408420015581526004602052600760408220018054906044358201809211610723575580f35b634e487b7160e01b83526011600452602483fd5b60405162461bcd60e51b815260206004820152601360248201527213db9b1e48195d995b9d0818dbdb9d1c9858dd606a1b6044820152606490fd5b506002548111156106ca565b503461018357610140366003190112610183576004356001600160401b038111610de3576107b090369060040161159f565b6024356001600160401b038111610ddf576107cf90369060040161159f565b906044356084356001600160401b038111610ddb576107f290369060040161159f565b9260c43560a43560e4356001600160401b038111610dd75761081890369060040161159f565b610104356001600160401b038111610dd35761083890369060040161159f565b91610124356001600160401b0381116104855761085990369060040161159f565b93875115610da0578615610d6b5742821115610d335781811115610cfe576002546108839061168b565b600281905560405163089af27560e11b815261016060048201529099909788976108b16101648a018c611525565b8981036003190160248b01526108c691611525565b903360448a0152606489015260643560848901526003198882030160a48901526108ef91611525565b9160c487015260e48601526003198582030161010486015261091091611525565b8381036003190161012485015261092691611525565b8281036003190161014484015261093c91611525565b038173__$14c5493a4b68df4c74769ace6ff8c044c6$__91815a93604094f4918215610cf35784918593610ca6575b50604051916109798361140b565b60018060a01b031691828152602081019360018060a01b031693848152604082019033825260608301918483526080840142815260a08501906001825260c08601928b845260e08701948c86528b8d52600460205260408d209760018060a01b039060018060a01b03905116166001600160601b0360a01b89541617885560018060a01b03905116600188019060018060a01b03166001600160601b0360a01b82541617905560018060a01b03905116600287019060018060a01b03166001600160601b0360a01b8254161790556003860194519485516001600160401b038111610c9257610a6882546113d1565b8d601f8211610c49575b90505060208d601f8311600114610bda579060079883610bcf575b50508160011b916000199060031b1c19161790555b516004860155600585019051151560ff8019835416911617905551600684015551910155338552600560205260408520805490600160401b821015610bbb57610af58287926001610b0e950181556115e6565b90919082549060031b91821b91600019901b1916179055565b338552600660205260408520610b24815461168b565b905560075494600160401b861015610ba75750610b4f84610af58760016060990160075560076115e6565b837f73d10b9da401c6fb107e7679d5d1eddd6ffd464dd1d96a1bce08a433fad07c9b60405184815285602082015287604082015280610b9233958a830190611525565b0390a360405192835260208301526040820152f35b634e487b7160e01b81526041600452602490fd5b634e487b7160e01b87526041600452602487fd5b015190503880610a8d565b91929394959697601f198416858452828420935b818110610c31575091600193918560079b9a999897969410610c18575b505050811b019055610aa2565b015160001960f88460031b161c19169055388080610c0b565b92936020600181928786015181550195019301610bee565b80846020925220601f830160051c81019160208410610c88575b601f0160051c01908e905b828110610c7b5750610a72565b6001918155018e90610c6e565b9091508190610c63565b634e487b7160e01b8d52604160045260248dfd5b915091506040813d604011610ceb575b81610cc36040938361143d565b81010312610ce757610ce06020610cd9836116b0565b92016116b0565b913861096b565b8380fd5b3d9150610cb6565b6040513d86823e3d90fd5b60405162461bcd60e51b815260206004820152600d60248201526c496e76616c69642074696d657360981b6044820152606490fd5b60405162461bcd60e51b815260206004820152601060248201526f14185cdd08195d995b9d081cdd185c9d60821b6044820152606490fd5b60405162461bcd60e51b815260206004820152600d60248201526c496e76616c696420707269636560981b6044820152606490fd5b60405162461bcd60e51b815260206004820152600b60248201526a456d707479207469746c6560a81b6044820152606490fd5b8880fd5b8780fd5b8480fd5b8280fd5b5080fd5b5034610183576020366003190112610183576004359081151580610f53575b610e0f9061164c565b818152600460205260408120600201546001600160a01b03163303610f1857818152600460205260ff60056040832001541615610ee057818152600460208181526040808420600501805460ff191690558484529190528120546001600160a01b0316803b15610de357818091600460405180948193630f1c296360e01b83525af18015610ed557610ec5575b50907f9bec5b77a290657edefc9defa075c60a874e90f7cc9496853ca9962d58a4ffdd8280a280f35b81610ecf9161143d565b38610e9c565b6040513d84823e3d90fd5b60405162461bcd60e51b815260206004820152601060248201526f416c726561647920696e61637469766560801b6044820152606490fd5b60405162461bcd60e51b81526020600482015260136024820152722737ba1032bb32b73a1037b933b0b734bd32b960691b6044820152606490fd5b50600254821115610e06565b50346101835780600319360112610183576003546040516001600160a01b039091168152602090f35b5034610183576020366003190112610183576020906040906001600160a01b03610fb06113b6565b168152600683522054604051908152f35b503461018357806003193601126101835760405180916020600754928381520191600782527fa66cc928b5edb82af9bd49922954155ab7b0942694bea4ce44661d9a8736c688915b818110611020576101698561015d8187038261143d565b8254845260209093019260019283019201611009565b50346101835780600319360112610183576020600254604051908152f35b503461018357806003193601126101835760405163aacff35960e01b81526007600482015260046024820152818160448173__$14c5493a4b68df4c74769ace6ff8c044c6$__5af4908115610ed55782916110b8575b60405180610169848261154a565b90503d8083833e6110c9818361143d565b810190602081830312610ddf578051906001600160401b038211610ce757019181601f84011215610183578251926001600160401b038411611157578360051b916040519461111b602085018761143d565b85526020808601938301019384116101835750602001905b8282106111475750505061016990386110aa565b8151815260209182019101611133565b634e487b7160e01b82526041600452602482fd5b503461018357806003193601126101835760209054604051908152f35b5034610183576020366003190112610183576111a26113b6565b6111b760018060a01b03600354163314611614565b6001600160a01b03168015611208576020817fba887708e7d4436dd36b62187bdced03e0b9abe66caf392a66dd84386641b209926001600160601b0360a01b6001541617600155604051908152a180f35b60405162461bcd60e51b8152602060048201526011602482015270125b9d985b1a59081c9958da5c1a595b9d607a1b6044820152606490fd5b50346101835760203660031901126101835760043561126b60018060a01b03600354163314611614565b6103e881116112a5576020817f45610d581145924dd7090a5017e5f2b1d6f42213bb2e95707ff86846bbfcb1ca928455604051908152a180f35b60405162461bcd60e51b815260206004820152600c60248201526b08ccaca40e8dede40d0d2ced60a31b6044820152606490fd5b503461018357602036600319011261018357600480358252602052604090208054600182015460028301546001600160a01b03918216939282169291166113226003830161145e565b9160048101549261136560ff6005840154169160076006850154940154946040519889988952602089015260408801526101006060880152610100870190611525565b936080860152151560a085015260c084015260e08301520390f35b905034610de3576020366003190112610de3576020916040906001600160a01b036113a96113b6565b1681526006845220548152f35b600435906001600160a01b03821682036113cc57565b600080fd5b90600182811c92168015611401575b60208310146113eb57565b634e487b7160e01b600052602260045260246000fd5b91607f16916113e0565b61010081019081106001600160401b0382111761142757604052565b634e487b7160e01b600052604160045260246000fd5b90601f801991011681019081106001600160401b0382111761142757604052565b9060405191826000825492611472846113d1565b80845293600181169081156114e05750600114611499575b506114979250038361143d565b565b90506000929192526020600020906000915b8183106114c4575050906020611497928201013861148a565b60209193508060019154838589010152019101909184926114ab565b90506020925061149794915060ff191682840152151560051b8201013861148a565b60005b8381106115155750506000910152565b8181015183820152602001611505565b9060209161153e81518092818552858086019101611502565b601f01601f1916010190565b602060408183019282815284518094520192019060005b81811061156e5750505090565b8251845260209384019390920191600101611561565b6001600160401b03811161142757601f01601f191660200190565b81601f820112156113cc578035906115b682611584565b926115c4604051948561143d565b828452602083830101116113cc57816000926020809301838601378301015290565b80548210156115fe5760005260206000200190600090565b634e487b7160e01b600052603260045260246000fd5b1561161b57565b60405162461bcd60e51b81526020600482015260096024820152682737ba1037bbb732b960b91b6044820152606490fd5b1561165357565b60405162461bcd60e51b815260206004820152601060248201526f125b9d985b1a5908195d995b9d08125160821b6044820152606490fd5b600019811461169a5760010190565b634e487b7160e01b600052601160045260246000fd5b51906001600160a01b03821682036113cc57565b3d156116ef573d906116d582611584565b916116e3604051938461143d565b82523d6000602084013e565b606090565b81601f820112156113cc57805161170a81611584565b92611718604051948561143d565b818452602082840101116113cc576117369160208085019101611502565b9056fea164736f6c634300081c000a",
  "linkReferences": {
    "contracts/EventFactoryLib.sol": {
      "EventFactoryLib": [
        {
          "length": 20,
          "start": 990
        },
        {
          "length": 20,
          "start": 2601
        },
        {
          "length": 20,
          "start": 4464
        }
      ]
    }
  },
  "deployedLinkReferences": {
    "contracts/EventFactoryLib.sol": {
      "EventFactoryLib": [
        {
          "length": 20,
          "start": 757
        },
        {
          "length": 20,
          "start": 2368
        },
        {
          "length": 20,
          "start": 4231
        }
      ]
    }
  }
}