{
  "_format": "hh-sol-artifact-1",
  "contractName": "EventFactoryLib",
  "sourceName": "contracts/EventFactoryLib.sol",
  "abi": [
    {
      "inputs": [
        {
          "internalType": "address",
          "name": "eventContract",
          "type": "address"
        }
      ],
      "name": "getEventDetailsFromContract",
      "outputs": [
        {
          "internalType": "string",
          "name": "description",
          "type": "string"
        },
        {
          "internalType": "uint256",
          "name": "ticketPrice",
          "type": "uint256"
        },
        {
          "internalType": "uint256",
          "name": "maxTickets",
          "type": "uint256"
        },
        {
          "internalType": "string",
          "name": "eventURI",
          "type": "string"
        },
        {
          "internalType": "uint256",
          "name": "eventStartTime",
          "type": "uint256"
        },
        {
          "internalType": "uint256",
          "name": "eventEndTime",
          "type": "uint256"
        },
        {
          "internalType": "string",
          "name": "venue",
          "type": "string"
        }
      ],
      "stateMutability": "view",
      "type": "function"
    }
  ],
  "bytecode": "0x60808060405234601c576160429081610022823930816104b00152f35b600080fdfe6080604052600436101561001257600080fd5b6000803560e01c80631135e4ea146104ac57806372177717146101975763aacff3591461003e57600080fd5b60403660031901126101945760043580548290602435825b828110610151575061008061006a84610908565b936100786040519586610770565b808552610908565b602084019490601f19013686378591865b8481106100dc57878688604051928392602084019060208552518091526040840192915b8181106100c3575050500390f35b82518452859450602093840193909201916001016100b5565b6100e681846108b5565b90549060031b1c88528160205260ff600560408a2001541661010b575b600101610091565b61011581846108b5565b90549060031b1c610125856108e3565b94875181101561013d5760051b870160200152610103565b634e487b7160e01b8a52603260045260248afd5b61015b81866108b5565b90549060031b1c86528160205260ff600560408820015416610180575b600101610056565b9261018c6001916108e3565b939050610178565b80fd5b506020366003190112610194576004356001600160a01b038116908190036104a857604051639434571b60e01b8152908282600481845afa91821561049d578392610481575b50604051630904d8fb60e11b815290602082600481845afa918215610476578492610442575b50604051639b89470360e01b815290602082600481845afa918215610437578592610403575b5060405163b5e8069560e01b8152908582600481845afa9182156103f85786926103dc575b50604051633a0754d360e11b815293602085600481855afa9485156103d157879561039d575b5060405163d6bd5db160e01b81529287602085600481875afa938415610390578194610354575b60405163a270a73760e01b81529550859060049082905afa938415610349579061031b969594939291896102eb9a9561031f575b5050610303929394604051998a9960e08b5260e08b019061082e565b9260208a01526040890152878203606089015261082e565b92608086015260a085015283820360c085015261082e565b0390f35b61030394955090610341913d8091833e6103398183610770565b810190610853565b9392386102cf565b6040513d8a823e3d90fd5b9350506020843d602011610388575b8161037060209383610770565b810103126103835787600494519361029b565b600080fd5b3d9150610363565b50604051903d90823e3d90fd5b9094506020813d6020116103c9575b816103b960209383610770565b8101031261038357519338610274565b3d91506103ac565b6040513d89823e3d90fd5b6103f19192503d8088833e6103398183610770565b903861024e565b6040513d88823e3d90fd5b9091506020813d60201161042f575b8161041f60209383610770565b8101031261038357519038610229565b3d9150610412565b6040513d87823e3d90fd5b9091506020813d60201161046e575b8161045e60209383610770565b8101031261038357519038610203565b3d9150610451565b6040513d86823e3d90fd5b6104969192503d8085833e6103398183610770565b90386101dd565b6040513d85823e3d90fd5b5080fd5b50307f000000000000000000000000000000000000000000000000000000000000000014610194576101603660031901126101945760043567ffffffffffffffff81116104a8576105019036906004016107c4565b60243567ffffffffffffffff8111610725576105219036906004016107c4565b6044356001600160a01b038116929083900361076c5760a43567ffffffffffffffff8111610768576105579036906004016107c4565b916101043567ffffffffffffffff8111610764576105799036906004016107c4565b916101243567ffffffffffffffff81116107605761059b9036906004016107c4565b926101443567ffffffffffffffff811161075c576105bd9036906004016107c4565b94604051936132bc938486019486861067ffffffffffffffff87111761074857926106136106569593610605610637948a99976109218b39610120885261012088019061082e565b90868203602088015261082e565b908a60408601526064356060860152608435608086015284820360a086015261082e565b9160c43560c082015260e43560e082015261010081840391015261082e565b039085f080156104765760018060a01b03169260405192612459928385019385851067ffffffffffffffff86111761073457859493926106a96060936106b793613bdd893960808752608087019061082e565b90858203602087015261082e565b928660408201520152039083f08015610729576001600160a01b0316813b156107255760405163a7ccabdf60e01b81526004810182905292808460248183875af193841561039057604094610715575b505082519182526020820152f35b8161071f91610770565b38610707565b8280fd5b6040513d84823e3d90fd5b634e487b7160e01b88526041600452602488fd5b634e487b7160e01b8b52604160045260248bfd5b8780fd5b8680fd5b8580fd5b8480fd5b8380fd5b90601f8019910116810190811067ffffffffffffffff82111761079257604052565b634e487b7160e01b600052604160045260246000fd5b67ffffffffffffffff811161079257601f01601f191660200190565b81601f82011215610383578035906107db826107a8565b926107e96040519485610770565b8284526020838301011161038357816000926020809301838601378301015290565b60005b83811061081e5750506000910152565b818101518382015260200161080e565b906020916108478151809281855285808601910161080b565b601f01601f1916010190565b6020818303126103835780519067ffffffffffffffff8211610383570181601f82011215610383578051610886816107a8565b926108946040519485610770565b81845260208284010111610383576108b2916020808501910161080b565b90565b80548210156108cd5760005260206000200190600090565b634e487b7160e01b600052603260045260246000fd5b60001981146108f25760010190565b634e487b7160e01b600052601160045260246000fd5b67ffffffffffffffff81116107925760051b6020019056fe608060405234610836576132bc803803806100198161083b565b928339810190610120818303126108365780516001600160401b0381116108365782610046918301610876565b60208201516001600160401b0381116108365783610065918401610876565b60408301519093906001600160a01b03811690819003610836576060840151608085015160a08601519091906001600160401b03811161083657846100ab918801610876565b9260c08701519660e08101519561010082015160018060401b038111610836576100d59201610876565b97811561082057600080546001600160a01b03198116841782556040519184916001600160a01b0316907f8be0079c531659141344cd1fd0a4f28419497f9722a3daafe3b4186f6b6457e09080a3600180558751156107f0575082156107bb57600096428911156107895788871115610754578051906001600160401b03821161074057600254600181811c91168015610736575b6020821014610722579081601f8493116106b4575b50602090601f831160011461064f578a92610644575b50508160011b916000199060031b1c1916176002555b8051906001600160401b03821161063057600354600181811c91168015610626575b6020821014610612579081601f8493116105a4575b50602090601f831160011461053f578992610534575b50508160011b916000199060031b1c1916176003555b600480546001600160a01b0319169190911790556005556006556008805460ff191660011790558051906001600160401b03821161052057600954600181811c91168015610516575b6020821014610502579081601f849311610494575b50602090601f831160011461042f578592610424575b50508160011b916000199060031b1c1916176009555b42600a55600b839055600c558251906001600160401b03821161041057600d54600181811c91168015610406575b60208210146103f257601f811161038f575b50602090601f831160011461032d579382939492610322575b50508160011b916000199060031b1c191617600d555b42601255601355600a6011556040516129da90816108e28239f35b0151905038806102f1565b90601f19831694600d8352818320925b868110610377575083600195961061035e575b505050811b01600d55610307565b015160001960f88460031b161c19169055388080610350565b9192602060018192868501518155019401920161033d565b600d82527fd7b6990105719101dabeb77144f2a3385c8033acd3af97e9423a695e81ad1eb5601f840160051c810191602085106103e8575b601f0160051c01905b8181106103dd57506102d8565b8281556001016103d0565b90915081906103c7565b634e487b7160e01b82526022600452602482fd5b90607f16906102c6565b634e487b7160e01b81526041600452602490fd5b015190503880610282565b600986528186209250601f198416865b81811061047c5750908460019594939210610463575b505050811b01600955610298565b015160001960f88460031b161c19169055388080610455565b9293602060018192878601518155019501930161043f565b600986529091507f6e1540171b6c0c960b71a7020d9f60077f6af931a8bbf590da0223dacf75c7af601f840160051c810191602085106104f8575b90601f859493920160051c01905b8181106104ea575061026c565b8681558493506001016104dd565b90915081906104cf565b634e487b7160e01b85526022600452602485fd5b90607f1690610257565b634e487b7160e01b84526041600452602484fd5b0151905038806101f8565b60038a52818a209250601f1984168a5b81811061058c5750908460019594939210610573575b505050811b0160035561020e565b015160001960f88460031b161c19169055388080610565565b9293602060018192878601518155019501930161054f565b60038a529091507fc2575a0e9e593c00f959f8c92f12db2869c3395a3b0502d05e2516446f71f85b601f840160051c81019160208510610608575b90601f859493920160051c01905b8181106105fa57506101e2565b8a81558493506001016105ed565b90915081906105df565b634e487b7160e01b89526022600452602489fd5b90607f16906101cd565b634e487b7160e01b88526041600452602488fd5b015190503880610195565b60028b52818b209250601f1984168b5b81811061069c5750908460019594939210610683575b505050811b016002556101ab565b015160001960f88460031b161c19169055388080610675565b9293602060018192878601518155019501930161065f565b60028b529091507f405787fa12a823e0f2b7631cc41b3ba8828b3321ca811111fa75cd3aa3bb5ace601f840160051c81019160208510610718575b90601f859493920160051c01905b81811061070a575061017f565b8b81558493506001016106fd565b90915081906106ef565b634e487b7160e01b8a52602260045260248afd5b90607f169061016a565b634e487b7160e01b89526041600452602489fd5b60405162461bcd60e51b815260206004820152600d60248201526c496e76616c69642074696d657360981b6044820152606490fd5b60405162461bcd60e51b815260206004820152600a60248201526914185cdd08195d995b9d60b21b6044820152606490fd5b60405162461bcd60e51b815260206004820152600d60248201526c496e76616c696420707269636560981b6044820152606490fd5b62461bcd60e51b815260206004820152600b60248201526a456d707479207469746c6560a81b6044820152606490fd5b631e4fbdf760e01b600052600060045260246000fd5b600080fd5b6040519190601f01601f191682016001600160401b0381118382101761086057604052565b634e487b7160e01b600052604160045260246000fd5b81601f82011215610836578051906001600160401b038211610860576108a5601f8301601f191660200161083b565b92828452602083830101116108365760005b8281106108cc57505060206000918301015290565b806020809284010151828287010152016108b756fe608080604052600436101561001357600080fd5b600090813560e01c908163069a052314612164575080630f1c2963146120cc5780631209b1f6146120ae5780631b54c0251461209057806322f3e2d41461206d5780632b2f0a0c1461204f5780632be32dbb146120315780634462182b14611b0d5780634db8563614611a8957806351fb012d14611a665780636120326514611a3d578063628ed260146114265780636cabab351461136f578063715018a614611315578063740ea9a6146112f757806380e3f1ad146112b2578063860954a2146112965780638da5cb5b1461126f5780638f15024f146112515780639434571b146112355780639b19251a146111f65780639b894703146111d8578063a0426f7c14611190578063a270a73714611174578063a7ccabdf146110b8578063aff177ca14610f77578063b5e8069514610f47578063cef2646d14610eb9578063cf09e0d014610e9b578063d56d229d14610e72578063d6bd5db114610e54578063dadd0a5714610d2b578063e2bb3ccf14610c4a578063e8eedc0814610c21578063eabd312d14610618578063f2fde38b146105925763f7c40884146101b857600080fd5b3461058f57608036600319011261058f576004356001600160401b03811161058d576101e89036906004016121ed565b6024356064356001600160401b0381116105895761020a9036906004016121ed565b9061022060018060a01b03600454163314612656565b61022b8115156126bd565b610237835115156126f9565b61024382511515612732565b61024e60155461276a565b92836015556040519261026084612180565b81845260208401938385526040810160443581526060820188815260808301916001835260a0840197858952898b52601460205260408b2094518051906001600160401b038211610575576102b587546122c5565b8d601f821161052c575b9050506020908d601f84116001146104bf5792610325969492819260059a999795926104b4575b50508160011b916000199060031b1c19161786555b516001860155516002850155516003840155511515600483019060ff801983541691151516179055565b0193518051906001600160401b0382116104a05761034386546122c5565b601f811161045b575b5060209787959493929189916001601f8511146103cc57927f24da1cc07aa6609ed68d98ab48e9f6419a554d8a48f45b29f7e0ae0bebf667d597989281926103b69695926103c1575b50508160011b916000199060031b1c19161790555b6040519384938461278f565b0390a2604051908152f35b015190503880610395565b90601f98939298198316848352898320925b8181106104415750917f24da1cc07aa6609ed68d98ab48e9f6419a554d8a48f45b29f7e0ae0bebf667d5989984926103b697969560019510610428575b505050811b0190556103aa565b015160001960f88460031b161c1916905538808061041b565b828b01518455998c01998b99506001909301928c016103de565b86895260208920601f840160051c81019160208510610496575b601f0160051c01905b81811061048b575061034c565b89815560010161047e565b9091508190610475565b634e487b7160e01b88526041600452602488fd5b0151905038806102e6565b9190601f198416898452828420935b818110610514575092600192859260059b9a98966103259a9896106104fb575b505050811b0186556102fb565b015160001960f88460031b161c191690553880806104ee565b929360206001819287860151815501950193016104ce565b80896020925220601f840160051c8101916020851061056b575b601f0160051c01908e905b82811061055e57506102bf565b6001918155018e90610551565b9091508190610546565b634e487b7160e01b8d52604160045260248dfd5b8380fd5b505b80fd5b503461058f57602036600319011261058f576105ac6125e9565b6105b4612944565b6001600160a01b031680156106045781546001600160a01b03198116821783556001600160a01b03167f8be0079c531659141344cd1fd0a4f28419497f9722a3daafe3b4186f6b6457e08380a380f35b631e4fbdf760e01b82526004829052602482fd5b50606036600319011261058f5761062d6125e9565b602435906044359160ff6008541615610beb576012544210610bb2576013544211610b7f57600260015414610b70576002600155600e546001600160a01b03163303610b37578015610aff5760ff60105416610aab575b8092801560001461099657506005546106a86106a083836128be565b3410156128d1565b6106b282826128be565b9160065480610931575b5050506106cb83600754612852565b6007555b60115480610865575b50838080808460018060a01b03600454165af16106f3612914565b501561082f578034116107d3575b835484906001600160a01b031680610756575b50507f2a91574e12ad96234e84923e146b0946ecfb871cd8d5534dc1fdcbe87a7c01b3916040918251948552602085015260018060a01b031692a26001805580f35b60075490803b156107cf5760648392604051948593849263170c17f160e31b845282600485015260248401528760448401525af1610796575b8490610714565b91846107c6604093967f2a91574e12ad96234e84923e146b0946ecfb871cd8d5534dc1fdcbe87a7c01b3956121b1565b9491509161078f565b8280fd5b838080806107e18534612845565b6001600160a01b0387165af16107f5612914565b506107015760405162461bcd60e51b815260206004820152600d60248201526c1499599d5b990819985a5b1959609a1b6044820152606490fd5b60405162461bcd60e51b815260206004820152600e60248201526d14185e5b595b9d0819985a5b195960921b6044820152606490fd5b600e546040516370a0823160e01b81526001600160a01b038581166004830152909160209183916024918391165afa801561092657859087906108ec575b6108ad9250612852565b116108b857386106d8565b60405162461bcd60e51b815260206004820152600c60248201526b15d85b1b195d081b1a5b5a5d60a21b6044820152606490fd5b50506020813d60201161091e575b81610907602093836121b1565b8101031261091a57846108ad91516108a3565b8580fd5b3d91506108fa565b6040513d88823e3d90fd5b60075461093d91612845565b908115610966578110610951575b806106bc565b935061095f915083906128be565b388061094b565b60405162461bcd60e51b815260206004820152600860248201526714dbdb19081bdd5d60c21b6044820152606490fd5b845260146020526040842060ff60048201541615610a725760018101546109c06106a084836128be565b6109ca83826128be565b926002830154806109fd575b5050506003016109e7848254612852565b90556109f583600754612852565b6007556106cf565b6003840154610a0b91612845565b908115610a39578110610a1f575b806109d6565b610a31919550600392935080956128be565b919038610a19565b60405162461bcd60e51b815260206004820152601160248201527010d85d1959dbdc9e481cdbdb19081bdd5d607a1b6044820152606490fd5b60405162461bcd60e51b815260206004820152601160248201527043617465676f727920696e61637469766560781b6044820152606490fd5b6001600160a01b0382168452600f602052604084205460ff166106845760405162461bcd60e51b815260206004820152600f60248201526e139bdd081dda1a5d195b1a5cdd1959608a1b6044820152606490fd5b60405162461bcd60e51b815260206004820152601060248201526f496e76616c6964207175616e7469747960801b6044820152606490fd5b60405162461bcd60e51b815260206004820152601160248201527013db9b1e481391950818dbdb9d1c9858dd607a1b6044820152606490fd5b633ee5aeb560e01b8452600484fd5b60405162461bcd60e51b815260206004820152600b60248201526a14d85b195cc8195b99195960aa1b6044820152606490fd5b60405162461bcd60e51b815260206004820152601160248201527014d85b195cc81b9bdd081cdd185c9d1959607a1b6044820152606490fd5b60405162461bcd60e51b815260206004820152600e60248201526d4576656e7420696e61637469766560901b6044820152606490fd5b503461058f57602036600319011261058f576020610c4060043561285f565b6040519015158152f35b503461058f578060031936011261058f57600160a01b600190036004541660055490600654916007549260085460ff1692600a5491600b5490600c5492610c8f6122ff565b96610c986123b8565b98610ca16124c2565b93610caa61243d565b986040519b8c9b6101808d526101808d01610cc491612239565b8c810360208e0152610cd591612239565b9460408c015260608b015260808a015260a0890152151560c088015286810360e0880152610d0291612239565b92610100860152610120850152610140840152828103610160840152610d2791612239565b0390f35b503461058f578060031936011261058f57601554610d488161227a565b90610d5660405192836121b1565b808252601f19610d658261227a565b01835b818110610e3d57505060015b81811115610de35782846040519182916020830160208452825180915260408401602060408360051b870101940192905b828210610db457505050500390f35b91936001919395506020610dd38192603f198a820301865288516125ff565b9601920192018594939192610da5565b808452601460205260408420600019820190828211610e2957610e249291610e0d610e1e926127ec565b610e178288612693565b5285612693565b5061276a565b610d74565b634e487b7160e01b86526011600452602486fd5b602090610e486127b8565b82828701015201610d68565b503461058f578060031936011261058f576020600c54604051908152f35b503461058f578060031936011261058f57600e546040516001600160a01b039091168152602090f35b503461058f578060031936011261058f576020600a54604051908152f35b503461058f57602036600319011261058f576040610f23916004358152601460205220610d27610ee882612547565b916001810154906002810154906003810154610f0e600560ff6004850154169301612547565b9260405197889760c0895260c0890190612239565b946020880152604087015260608601521515608085015283820360a0850152612239565b503461058f578060031936011261058f57610d27610f636124c2565b604051918291602083526020830190612239565b503461058f57604036600319011261058f576004356001600160401b03811161058d573660238201121561058d578060040135610fb38161227a565b91610fc160405193846121b1565b8183526024602084019260051b820101903682116110b457602401915b8183106110945750505060243590811515908183036105895761100c60018060a01b03600454163314612656565b835b8151811015611090576001906001600160a01b0361102c8285612693565b51168652600f60205261104e85604088209060ff801983541691151516179055565b818060a01b0361105e8285612693565b51167ff93f9a76c1bf3444d22400a00cb9fe990e6abe9dbb333fda48859cfee864543d6020604051878152a20161100e565b8480f35b82356001600160a01b038116810361091a57815260209283019201610fde565b8480fd5b503461058f57602036600319011261058f576110d26125e9565b600e54906001600160a01b038216611141576001600160a01b0316908115611105576001600160a01b03191617600e5580f35b60405162461bcd60e51b8152602060048201526014602482015273125b9d985b1a59081391950818dbdb9d1c9858dd60621b6044820152606490fd5b60405162461bcd60e51b815260206004820152600b60248201526a105b1c9958591e481cd95d60aa1b6044820152606490fd5b503461058f578060031936011261058f57610d27610f6361243d565b503461058f57602036600319011261058f576111c46040610d27926111b36127b8565b5060043581526014602052206127ec565b6040519182916020835260208301906125ff565b503461058f578060031936011261058f576020600654604051908152f35b503461058f57602036600319011261058f5760209060ff906040906001600160a01b036112216125e9565b168152600f84522054166040519015158152f35b503461058f578060031936011261058f57610d27610f636123b8565b503461058f578060031936011261058f576020600754604051908152f35b503461058f578060031936011261058f57546040516001600160a01b039091168152602090f35b503461058f578060031936011261058f57610d27610f636122ff565b503461058f57602036600319011261058f5760043580151580910361058d576112e660018060a01b03600454163314612656565b60ff80196010541691161760105580f35b503461058f578060031936011261058f576020600b54604051908152f35b503461058f578060031936011261058f5761132e612944565b80546001600160a01b03198116825581906001600160a01b03167f8be0079c531659141344cd1fd0a4f28419497f9722a3daafe3b4186f6b6457e08280a380f35b503461058f57604036600319011261058f576004356024359061139d60018060a01b03600454163314612656565b808211156113f057600b5482116113b75760125560135580f35b60405162461bcd60e51b815260206004820152601160248201527014d85b195cc818599d195c88195d995b9d607a1b6044820152606490fd5b60405162461bcd60e51b815260206004820152600e60248201526d125b9d985b1a59081c195c9a5bd960921b6044820152606490fd5b503461058f57602036600319011261058f57600435906001600160401b03821161058f573660238301121561058f5781600401356114638161227a565b9261147160405194856121b1565b8184526024602085019260051b820101903682116105895760248101925b82841061198b5785856114ad60018060a01b03600454163314612656565b81511561194d5760148251116119125781516114c88161227a565b906114d660405192836121b1565b8082526114e5601f199161227a565b01366020830137815b83518310156118b85761151060206115068587612693565b51015115156126bd565b61152761151d8486612693565b51515115156126f9565b61154160606115368587612693565b510151511515612732565b61154c60155461276a565b92836015558361155c8285612693565b526115678186612693565b51519360206115768388612693565b5101519460406115868489612693565b510151956060611596858a612693565b51015196604051926115a784612180565b83526020830191825260408301908152606083019086825260808401926001845260a08501998a5285885260146020526040882094518051906001600160401b0382116118a4576115f887546122c5565b601f811161185f575b50602090601f83116001146117f35791806116629694926005999896948d926117e85750508160011b916000199060031b1c1916178655516001860155516002850155516003840155511515600483019060ff801983541691151516179055565b0194519485516001600160401b0381116117d45761168082546122c5565b601f811161178f575b506020601f821160011461172a5781908697986001979261171f575b5050600019600383901b1c191690851b1790555b7f24da1cc07aa6609ed68d98ab48e9f6419a554d8a48f45b29f7e0ae0bebf667d56116e48388612693565b515160206116f2858a612693565b510151906117146060611705878c612693565b5101516040519384938461278f565b0390a20191906114ee565b0151905089806116a5565b82865280862097601f198316875b818110611777575091600197989991848995941061175e575b505050811b0190556116b9565b015160001960f88460031b161c19169055898080611751565b92996020600181928d8601518155019b019301611738565b82865260208620601f830160051c810191602084106117ca575b601f0160051c01905b8181106117bf5750611689565b8681556001016117b2565b90915081906117a9565b634e487b7160e01b85526041600452602485fd5b015190508f806102e6565b878b52818b209190601f1984168c5b818110611847575092600192859260059b9a98966116629a98961061182e57505050811b0186556102fb565b015160001960f88460031b161c191690558f80806104ee565b92936020600181928786015181550195019301611802565b878b5260208b20601f840160051c8101916020851061189a575b601f0160051c01905b81811061188f5750611601565b8b8155600101611882565b9091508190611879565b634e487b7160e01b8a52604160045260248afd5b610d27827f370bbe1d59b660849f246e50f59210dd6cf96f69b42ef2c416967996bc835b8b86516040518091604082526118f56040830186612291565b9060208301520390a1604051918291602083526020830190612291565b60405162461bcd60e51b8152602060048201526013602482015272546f6f206d616e792063617465676f7269657360681b6044820152606490fd5b60405162461bcd60e51b8152602060048201526016602482015275139bc818d85d1959dbdc9a595cc81c1c9bdd9a59195960521b6044820152606490fd5b83356001600160401b03811161091a5782016080602319823603011261091a5760405190608082018281106001600160401b038211176104a05760405260248101356001600160401b038111611a39576119eb90602436918401016121ed565b8252604481013560208301526064810135604083015260848101356001600160401b038111611a395791611a296020949260248695369201016121ed565b606082015281520193019261148f565b8780fd5b503461058f578060031936011261058f576004546040516001600160a01b039091168152602090f35b503461058f578060031936011261058f57602060ff601054166040519015158152f35b503461058f57602036600319011261058f5760043580151580611b01575b15611ac6576005604083610f6393610d27955260146020522001612547565b60405162461bcd60e51b8152602060048201526013602482015272125b9d985b1a590818d85d1959dbdc9e481251606a1b6044820152606490fd5b50601554811115611aa7565b503461058f5760a036600319011261058f576004356001600160401b03811161058d57611b3e9036906004016121ed565b906024356001600160401b03811161058d57611b5e9036906004016121ed565b916044356001600160401b0381116107cf57611b7e9036906004016121ed565b926064359060843592611b9c60018060a01b03600454163314612656565b82841115611ffc5742831115611fc5578051906001600160401b038211611fb1578190611bca6003546122c5565b601f8111611f3c575b50602090601f8311600114611ecb578792611ec0575b50508160011b916000199060031b1c1916176003555b8051906001600160401b0382116117d4578190611c1d6009546122c5565b601f8111611e4b575b50602090601f8311600114611dda578692611dcf575b50508160011b916000199060031b1c1916176009555b83516001600160401b038111611dbb57611c6d600d546122c5565b601f8111611d50575b50602094601f8211600114611ce0579484958293949592611cd5575b50508160011b916000199060031b1c191617600d555b600b55600c557fb8c7154e2dd592fae2092b20b6c082f892e32800e1992ad1717e65976b5913848180a180f35b015190503880611c92565b600d8552601f1982169560008051602061298e83398151915291865b888110611d3857508360019596979810611d1f575b505050811b01600d55611ca8565b015160001960f88460031b161c19169055388080611d11565b91926020600181928685015181550194019201611cfc565b600d8552601f820160051c60008051602061298e833981519152019060208310611da5575b601f0160051c60008051602061298e83398151915201905b818110611d9a5750611c76565b858155600101611d8d565b60008051602061298e8339815191529150611d75565b634e487b7160e01b84526041600452602484fd5b015190503880611c3c565b600987526000805160206129ae8339815191529250601f198416875b818110611e335750908460019594939210611e1a575b505050811b01600955611c52565b015160001960f88460031b161c19169055388080611e0c565b92936020600181928786015181550195019301611df6565b90915060098652601f830160051c6000805160206129ae833981519152019060208410611eaa575b90601f8493920160051c6000805160206129ae83398151915201905b818110611e9c5750611c26565b878155849350600101611e8f565b6000805160206129ae8339815191529150611e73565b015190503880611be9565b6003885260008051602061296e8339815191529250601f198416885b818110611f245750908460019594939210611f0b575b505050811b01600355611bff565b015160001960f88460031b161c19169055388080611efd565b92936020600181928786015181550195019301611ee7565b90915060038752601f830160051c60008051602061296e833981519152019060208410611f9b575b90601f8493920160051c60008051602061296e83398151915201905b818110611f8d5750611bd3565b888155849350600101611f80565b60008051602061296e8339815191529150611f64565b634e487b7160e01b86526041600452602486fd5b60405162461bcd60e51b815260206004820152600f60248201526e506173742073746172742074696d6560881b6044820152606490fd5b60405162461bcd60e51b815260206004820152600d60248201526c496e76616c69642074696d657360981b6044820152606490fd5b503461058f578060031936011261058f576020601554604051908152f35b503461058f578060031936011261058f576020601154604051908152f35b503461058f578060031936011261058f57602060ff600854166040519015158152f35b503461058f578060031936011261058f576020601254604051908152f35b503461058f578060031936011261058f576020600554604051908152f35b503461058f578060031936011261058f576120f260018060a01b03600454163314612656565b60085460ff81161561212c5760ff19166008557f1633395b3d19b53638dc44afbbedcd06dfde0b2ee80cfa7640fefc57feff7ee18180a180f35b60405162461bcd60e51b815260206004820152601060248201526f416c726561647920696e61637469766560801b6044820152606490fd5b90503461058d578160031936011261058d576020906013548152f35b60c081019081106001600160401b0382111761219b57604052565b634e487b7160e01b600052604160045260246000fd5b90601f801991011681019081106001600160401b0382111761219b57604052565b6001600160401b03811161219b57601f01601f191660200190565b81601f8201121561223457803590612204826121d2565b9261221260405194856121b1565b8284526020838301011161223457816000926020809301838601378301015290565b600080fd5b919082519283825260005b848110612265575050826000602080949584010152601f8019910116010190565b80602080928401015182828601015201612244565b6001600160401b03811161219b5760051b60200190565b906020808351928381520192019060005b8181106122af5750505090565b82518452602093840193909201916001016122a2565b90600182811c921680156122f5575b60208310146122df57565b634e487b7160e01b600052602260045260246000fd5b91607f16916122d4565b6040519060008260025491612313836122c5565b80835292600181169081156123995750600114612339575b612337925003836121b1565b565b506002600090815290917f405787fa12a823e0f2b7631cc41b3ba8828b3321ca811111fa75cd3aa3bb5ace5b81831061237d5750509060206123379282010161232b565b6020919350806001915483858901015201910190918492612365565b6020925061233794915060ff191682840152151560051b82010161232b565b60405190600082600354916123cc836122c5565b808352926001811690811561239957506001146123ef57612337925003836121b1565b5060036000908152909160008051602061296e8339815191525b8183106124215750509060206123379282010161232b565b6020919350806001915483858901015201910190918492612409565b60405190600082600d5491612451836122c5565b8083529260018116908115612399575060011461247457612337925003836121b1565b50600d6000908152909160008051602061298e8339815191525b8183106124a65750509060206123379282010161232b565b602091935080600191548385890101520191019091849261248e565b60405190600082600954916124d6836122c5565b808352926001811690811561239957506001146124f957612337925003836121b1565b506009600090815290916000805160206129ae8339815191525b81831061252b5750509060206123379282010161232b565b6020919350806001915483858901015201910190918492612513565b906040519182600082549261255b846122c5565b80845293600181169081156125c75750600114612580575b50612337925003836121b1565b90506000929192526020600020906000915b8183106125ab5750509060206123379282010138612573565b6020919350806001915483858901015201910190918492612592565b90506020925061233794915060ff191682840152151560051b82010138612573565b600435906001600160a01b038216820361223457565b6126539160a0612618835160c0845260c0840190612239565b9260208101516020840152604081015160408401526060810151606084015260808101511515608084015201519060a0818403910152612239565b90565b1561265d57565b60405162461bcd60e51b815260206004820152600e60248201526d27b7363c9037b933b0b734bd32b960911b6044820152606490fd5b80518210156126a75760209160051b010190565b634e487b7160e01b600052603260045260246000fd5b156126c457565b60405162461bcd60e51b815260206004820152600d60248201526c496e76616c696420707269636560981b6044820152606490fd5b1561270057565b60405162461bcd60e51b815260206004820152600a602482015269456d707479206e616d6560b01b6044820152606490fd5b1561273957565b60405162461bcd60e51b8152602060048201526009602482015268456d7074792055524960b81b6044820152606490fd5b60001981146127795760010190565b634e487b7160e01b600052601160045260246000fd5b6127a56126539492606083526060830190612239565b9260208201526040818403910152612239565b604051906127c582612180565b606060a0838281526000602082015260006040820152600083820152600060808201520152565b906040516127f981612180565b60a06128406005839561280b81612547565b855260018101546020860152600281015460408601526003810154606086015260ff6004820154161515608086015201612547565b910152565b9190820391821161277957565b9190820180921161277957565b60ff60085416156128ad57601254421080156128b3575b6128ad576006548015159182612897575b505061289257600190565b600090565b6128a5919250600754612852565b113880612887565b50600090565b506013544211612876565b8181029291811591840414171561277957565b156128d857565b60405162461bcd60e51b8152602060048201526014602482015273125b9cdd59999a58da595b9d081c185e5b595b9d60621b6044820152606490fd5b3d1561293f573d90612925826121d2565b9161293360405193846121b1565b82523d6000602084013e565b606090565b6000546001600160a01b0316330361295857565b63118cdaa760e01b6000523360045260246000fdfec2575a0e9e593c00f959f8c92f12db2869c3395a3b0502d05e2516446f71f85bd7b6990105719101dabeb77144f2a3385c8033acd3af97e9423a695e81ad1eb56e1540171b6c0c960b71a7020d9f60077f6af931a8bbf590da0223dacf75c7afa164736f6c634300081c000a6080604052346103d15761245980380380610019816103d6565b9283398101906080818303126103d15780516001600160401b0381116103d157826100459183016103fb565b602082015190926001600160401b0382116103d1576100659183016103fb565b9061007e606061007760408401610466565b9201610466565b83516001600160401b0381116102dc57600054600181811c911680156103c7575b60208210146102bc57601f8111610363575b50602094601f82116001146102fd579481929394956000926102f2575b50508160011b916000199060031b1c1916176000555b82516001600160401b0381116102dc57600154600181811c911680156102d2575b60208210146102bc57601f8111610257575b506020601f82116001146101f057819293946000926101e5575b50508160011b916000199060031b1c1916176001555b6001600160a01b03169081156101cf57600b80546001600160a01b03198116841790915560405192906001600160a01b03167f8be0079c531659141344cd1fd0a4f28419497f9722a3daafe3b4186f6b6457e0600080a36001600c55600d80546001600160a01b0319166001600160a01b0392909216919091179055611fde908161047b8239f35b631e4fbdf760e01b600052600060045260246000fd5b015190503880610131565b601f198216906001600052806000209160005b81811061023f57509583600195969710610226575b505050811b01600155610147565b015160001960f88460031b161c19169055388080610218565b9192602060018192868b015181550194019201610203565b60016000527fb10e2d527612073b26eecdfd717e6a320cf44b4afac2b0732d9fcbe2b7fa0cf6601f830160051c810191602084106102b2575b601f0160051c01905b8181106102a65750610117565b60008155600101610299565b9091508190610290565b634e487b7160e01b600052602260045260246000fd5b90607f1690610105565b634e487b7160e01b600052604160045260246000fd5b0151905038806100ce565b601f1982169560008052806000209160005b88811061034b57508360019596979810610332575b505050811b016000556100e4565b015160001960f88460031b161c19169055388080610324565b9192602060018192868501518155019401920161030f565b600080527f290decd9548b62a8d60345a988386fc84ba6bc95484008f6362f93160ef3e563601f830160051c810191602084106103bd575b601f0160051c01905b8181106103b157506100b1565b600081556001016103a4565b909150819061039b565b90607f169061009f565b600080fd5b6040519190601f01601f191682016001600160401b038111838210176102dc57604052565b81601f820112156103d1578051906001600160401b0382116102dc5761042a601f8301601f19166020016103d6565b92828452602083830101116103d15760005b82811061045157505060206000918301015290565b8060208092840101518282870101520161043c565b51906001600160a01b03821682036103d15756fe608080604052600436101561001357600080fd5b600090813560e01c90816301ffc9a714610f795750806306fdde0314610ed4578063081812fc14610e97578063095ea7b314610daf57806318160ddd14610d9157806323b872dd14610d795780632660644814610bed5780632a55205a14610b095780632cd1d35c14610ad85780632f745c5914610ab0578063335477fc14610a9357806339ea739c1461097357806342842e0e146109435780634f6ccce7146108f357806350b44712146108905780636352211e1461085f57806370a0823114610833578063715018a6146107d657806371efdc21146107a75780637dc379fa146106ce57806385fd52f01461066c5780638da5cb5b1461064357806395d89b4114610574578063989b302e1461051d578063a22cb46514610470578063b88d4fde146103fc578063c87b56dd146103c4578063cf7a314114610284578063e274fd241461025b578063e985e9c5146102015763f2fde38b1461017657600080fd5b346101fe5760203660031901126101fe5761018f611073565b610197611914565b6001600160a01b031680156101ea57600b80546001600160a01b0319811683179091556001600160a01b03167f8be0079c531659141344cd1fd0a4f28419497f9722a3daafe3b4186f6b6457e08380a380f35b631e4fbdf760e01b82526004829052602482fd5b80fd5b50346101fe5760403660031901126101fe57604061021d611073565b9161022661108e565b9260018060a01b031681526005602052209060018060a01b0316600052602052602060ff604060002054166040519015158152f35b50346101fe57806003193601126101fe57600d546040516001600160a01b039091168152602090f35b50346101fe5760603660031901126101fe5761029e611073565b60243567ffffffffffffffff81116103c057906020927f5c1c9352d51031acc9a558d7cdcca15b0ce5fe4f46d7315cca355248175b0a37846102e761032695369060040161119d565b926103b16044359161030460018060a01b03600d541633146116dd565b600e54978896610313886118b8565b600e55610320888a61193d565b87611c6a565b600460405191610335836110de565b8783526001600160a01b0398891686840181815242604080870191825260608701898152608088018681528d8752600f8c529190952096518755915160018701805491909d166001600160a01b031990911617909b55995160028501559051600384015597519101805460ff191691151560ff16919091179055565b604051908152a3604051908152f35b8280fd5b50346101fe5760203660031901126101fe576103f86103e4600435611f05565b604051918291602083526020830190611034565b0390f35b50346101fe5760803660031901126101fe57610416611073565b61041e61108e565b906044356064359267ffffffffffffffff841161046c573660238501121561046c57610457610469943690602481600401359101611166565b926104638383836112ae565b33611ddc565b80f35b8480fd5b50346101fe5760403660031901126101fe5761048a611073565b6024359081151590818303610519576001600160a01b0316918215610505576104d6903385526005602052604085208460005260205260406000209060ff801983541691151516179055565b6040519081527f17307eab39ab6107e8899845ad3d59bd9653f200f220920489ca2b5937696c3160203392a380f35b630b61174360e31b84526004839052602484fd5b8380fd5b50346101fe5760603660031901126101fe57610537611073565b906024359067ffffffffffffffff82116101fe576103f86105688461055f36600487016111bb565b6044359161171f565b6040519182918261123a565b50346101fe57806003193601126101fe5760405190806001549061059782611274565b808552916001811690811561061c57506001146105bf575b6103f8846103e481860382611110565b600181527fb10e2d527612073b26eecdfd717e6a320cf44b4afac2b0732d9fcbe2b7fa0cf6939250905b808210610602575090915081016020016103e4826105af565b9192600181602092548385880101520191019092916105e9565b60ff191660208087019190915292151560051b850190920192506103e491508390506105af565b50346101fe57806003193601126101fe57600b546040516001600160a01b039091168152602090f35b50346101fe5760203660031901126101fe57610686611073565b61068f81611661565b9061069982611697565b925b8281106106b057604051806103f8868261123a565b806106bd600192846115dc565b6106c782876116c9565b520161069b565b50346101fe5760203660031901126101fe57604060a09160043581608084516106f6816110de565b82815282602082015282868201528260608201520152610726600180861b0361071e836118dd565b16151561157f565b8152600f6020522060405161073a816110de565b815491828252600180851b036001820154166020830190815260028201549060408401918252608060ff60046003860154956060880196875201541694019315158452604051948552600180871b0390511660208501525160408401525160608301525115156080820152f35b50346101fe5760203660031901126101fe5760ff60406020926004358152601084522054166040519015158152f35b50346101fe57806003193601126101fe576107ef611914565b600b80546001600160a01b0319811690915581906001600160a01b03167f8be0079c531659141344cd1fd0a4f28419497f9722a3daafe3b4186f6b6457e08280a380f35b50346101fe5760203660031901126101fe576020610857610852611073565b611661565b604051908152f35b50346101fe5760203660031901126101fe57602061087e6004356118dd565b6040516001600160a01b039091168152f35b50346101fe5760203660031901126101fe57604060a0916004358152600f60205220805490600180841b0360018201541690600281015460ff60046003840154930154169260405194855260208501526040840152606083015215156080820152f35b50346101fe5760203660031901126101fe576004359060095482101561092d57602061091e83611630565b90549060031b1c604051908152f35b60449163295f44f760e21b825281600452602452fd5b50346101fe57610469610955366110a4565b9060405192610965602085611110565b8584526104638383836112ae565b5060603660031901126101fe5760243560043560443567ffffffffffffffff8111610519576109a69036906004016111bb565b906002600c5414610a84576002600c5580825103610a4a57600d546001600160a01b0316908490823b15610a465760646040518094819363eabd312d60e01b8352336004840152602483015287604483015234905af18015610a3b5793610a1a9392916103f895610a2b575b50503361171f565b6001600c556040519182918261123a565b81610a3591611110565b38610a12565b6040513d86823e3d90fd5b5080fd5b60405162461bcd60e51b81526020600482015260126024820152710aaa49240c6deeadce840dad2e6dac2e8c6d60731b6044820152606490fd5b633ee5aeb560e01b8452600484fd5b50346101fe57806003193601126101fe5760206040516101f48152f35b50346101fe5760403660031901126101fe576020610857610acf611073565b602435906115dc565b50346101fe5760203660031901126101fe5760ff6004604060209382358152600f8552200154166040519015158152f35b50346101fe5760403660031901126101fe5760243590610b356001600160a01b0361071e6004356118dd565b600d54604051636120326560e01b815290602090829060049082906001600160a01b03165afa908115610be2578291610bb3575b506101f48302928084046101f41490151715610b9f57604080516001600160a01b03909216825261271090930460208201529050f35b634e487b7160e01b82526011600452602482fd5b610bd5915060203d602011610bdb575b610bcd8183611110565b8101906115bd565b38610b69565b503d610bc3565b6040513d84823e3d90fd5b50346101fe5760203660031901126101fe57600435610c166001600160a01b0361071e836118dd565b808252600f60205260ff600460408420015416610d4557600d54604051636120326560e01b815290602090829060049082906001600160a01b03165afa908115610d3a578391610d1b575b506001600160a01b031633148015610d07575b15610cd157808252600f60205260046040832001600160ff19825416179055808252601060205260408220600160ff198254161790557f1f5d53e38fbc5a40092861e993062e74fb6dc7acef58356c7b55aa1afd8b35018280a280f35b60405162461bcd60e51b815260206004820152600e60248201526d139bdd08185d5d1a1bdc9a5e995960921b6044820152606490fd5b50600b546001600160a01b03163314610c74565b610d34915060203d602011610bdb57610bcd8183611110565b38610c61565b6040513d85823e3d90fd5b60405162461bcd60e51b815260206004820152600c60248201526b105b1c9958591e481d5cd95960a21b6044820152606490fd5b50346101fe57610469610d8b366110a4565b916112ae565b50346101fe57806003193601126101fe576020600954604051908152f35b50346101fe5760403660031901126101fe57610dc9611073565b602435610dd5816118dd565b33151580610e84575b80610e59575b610e465781906001600160a01b0384811691167f8c5be1e5ebec7d5bd14f71427d1e84f3dd0314c0f7b2291e5b200ac8c7c3b9258680a4825260046020526040822080546001600160a01b0319166001600160a01b0390921691909117905580f35b63a9fbf51f60e01b845233600452602484fd5b506001600160a01b038116845260056020908152604080862033875290915284205460ff1615610de4565b506001600160a01b038116331415610dde565b50346101fe5760203660031901126101fe57602090600435610eb8816118dd565b50815260048252604060018060a01b0391205416604051908152f35b50346101fe57806003193601126101fe576040519080805490610ef682611274565b808552916001811690811561061c5750600114610f1d576103f8846103e481860382611110565b8080527f290decd9548b62a8d60345a988386fc84ba6bc95484008f6362f93160ef3e563939250905b808210610f5f575090915081016020016103e4826105af565b919260018160209254838588010152019101909291610f46565b905034610a46576020366003190112610a465760043563ffffffff60e01b81168091036103c0576020925063152a902d60e11b8114908115610fbd575b5015158152f35b63780e9d6360e01b811491508115610fd7575b5038610fb6565b632483248360e11b811491508115610ff1575b5038610fd0565b6380ac58cd60e01b811491508115611023575b8115611012575b5038610fea565b6301ffc9a760e01b1490503861100b565b635b5e139f60e01b81149150611004565b919082518082526020808301940160005b828110611063575050600081602094950152601f8019910116010190565b8181015186820152602001611045565b600435906001600160a01b038216820361108957565b600080fd5b602435906001600160a01b038216820361108957565b6060906003190112611089576004356001600160a01b038116810361108957906024356001600160a01b0381168103611089579060443590565b60a0810190811067ffffffffffffffff8211176110fa57604052565b634e487b7160e01b600052604160045260246000fd5b90601f8019910116810190811067ffffffffffffffff8211176110fa57604052565b67ffffffffffffffff81116110fa5760051b60200190565b67ffffffffffffffff81116110fa57601f01601f191660200190565b9291926111728261114a565b916111806040519384611110565b829481845281830111611089578281602093846000960137010152565b9080601f83011215611089578160206111b893359101611166565b90565b9080601f830112156110895781356111d281611132565b926111e06040519485611110565b81845260208085019260051b820101918383116110895760208201905b83821061120c57505050505090565b813567ffffffffffffffff81116110895760209161122f8784809488010161119d565b8152019101906111fd565b602060408183019282815284518094520192019060005b81811061125e5750505090565b8251845260209384019390920191600101611251565b90600182811c921680156112a4575b602083101461128e57565b634e487b7160e01b600052602260045260246000fd5b91607f1691611283565b9091906001600160a01b0383168015611569576000838152600260205260408120546001600160a01b031694331515806114da575b50851580156114a5575b83835260036020526040832060018154019055858352600260205260408320846bffffffffffffffffffffffff60a01b8254161790558584887fddf252ad1be2c89b69c2b068fc378daa952ba7f163c4a11628f55a4df523b3ef8680a41561142857600954858352600a602052806040842055600160401b81101561141457856113808260016113999401600955611630565b90919082549060031b91821b91600019901b1916179055565b8286036113d3575b5050506001600160a01b03168083036113b957505050565b6364283d7b60e01b60005260045260245260445260646000fd5b6113dc90611661565b600019810192908311610b9f5790604091815260076020528181208382526020528482822055848152600860205220553880806113a1565b634e487b7160e01b83526041600452602483fd5b8583146113995761143886611661565b85835260086020526040832054908784526007602052604084209181810361147a575b5086845260086020528360408120558352602052816040812055611399565b818552826020526040852054818652836020528060408720558552600860205260408520553861145b565b600086815260046020526040902080546001600160a01b031916905586835260036020526040832080546000190190556112ed565b8061151a575b156114eb57386112e3565b84828761150457602491637e27328960e01b8252600452fd5b60449163177e802f60e01b825233600452602452fd5b503386148015611548575b806114e05750848252600460205260408220546001600160a01b031633146114e0565b5085825260056020908152604080842033855290915282205460ff16611525565b633250574960e11b600052600060045260246000fd5b1561158657565b60405162461bcd60e51b815260206004820152600f60248201526e151bdad95b881b9bdd08195e1a5cdd608a1b6044820152606490fd5b9081602091031261108957516001600160a01b03811681036110895790565b6115e581611661565b8210156116115760018060a01b0316600052600760205260406000209060005260205260406000205490565b63295f44f760e21b60005260018060a01b031660045260245260446000fd5b60095481101561164b57600960005260206000200190600090565b634e487b7160e01b600052603260045260246000fd5b6001600160a01b0316801561168157600052600360205260406000205490565b6322718ad960e21b600052600060045260246000fd5b906116a182611132565b6116ae6040519182611110565b82815280926116bf601f1991611132565b0190602036910137565b805182101561164b5760209160051b010190565b156116e457565b60405162461bcd60e51b815260206004820152601360248201527213db9b1e48195d995b9d0818dbdb9d1c9858dd606a1b6044820152606490fd5b9290919261173860018060a01b03600d541633146116dd565b825180151590816118ac575b50156118745761175683929351611697565b6001600160a01b0382169260005b815181101561186b5760019085600e5461177d816118b8565b600e5561178a818861193d565b61179e61179784876116c9565b5182611c6a565b61182f6040516117ad816110de565b8281526004602082018581528d604084014281526060850191825260808501926000845287600052600f6020526040600020955186558a8060a01b039051168a8601908b8060a01b03166bffffffffffffffffffffffff60a01b82541617905551600285015551600384015551151591019060ff801983541691151516179055565b8061183a84886116c9565b527f5c1c9352d51031acc9a558d7cdcca15b0ce5fe4f46d7315cca355248175b0a3760206040518c8152a301611764565b50909450505050565b60405162461bcd60e51b815260206004820152601060248201526f496e76616c6964207175616e7469747960801b6044820152606490fd5b600a9150111538611744565b60001981146118c75760010190565b634e487b7160e01b600052601160045260246000fd5b6000818152600260205260409020546001600160a01b0316908115611900575090565b637e27328960e01b60005260045260246000fd5b600b546001600160a01b0316330361192857565b63118cdaa760e01b6000523360045260246000fd5b906020906040519061194f8383611110565b600082526001600160a01b0384169384156115695760008281526002855260408120546001600160a01b031680158015929083611c36575b8882526003885260408083208054600101905586835260028952822080546001600160a01b0319168a1790558589847fddf252ad1be2c89b69c2b068fc378daa952ba7f163c4a11628f55a4df523b3ef8580a415611bc057600954858252600a8852806040832055600160401b811015611bac5785611380826001611a0f9401600955611630565b878203611b5c575b5050611b46573b611a29575b50505050565b91611a6791819495936040519384928392630a85bd0160e11b8452336004850152600060248501526044840152608060648401526084830190611034565b03816000885af18091600091611b08575b5090611acf5750503d15611ac8573d611a908161114a565b90611a9e6040519283611110565b81523d60008383013e5b80519182611ac55783633250574960e11b60005260045260246000fd5b01fd5b6060611aa8565b909291506001600160e01b03191663757a42ff60e11b01611af4575038808080611a23565b633250574960e11b60005260045260246000fd5b8481813d8311611b3f575b611b1d8183611110565b81010312610a465751906001600160e01b0319821682036101fe575038611a78565b503d611b13565b6339e3563760e11b600052600060045260246000fd5b611b6584611661565b600019810191908211611b9857808960409252600789528181208382528952868282205586815260088952205538611a17565b634e487b7160e01b81526011600452602490fd5b634e487b7160e01b82526041600452602482fd5b818814611a0f57611bd082611661565b85825260088852604082205490838352600789526040832091818103611c0e575b508683526008895282604081205582528752806040812055611a0f565b818452828a526040842054818552838b52806040862055845260088a52604084205538611bf1565b600086815260046020526040902080546001600160a01b031916905582825260038852604082208054600019019055611987565b9190918060005260066020526040600020835167ffffffffffffffff81116110fa57611c968254611274565b601f8111611d94575b506020601f8211600114611d0857908060209493927ff8e1a15aba9398e019f0b49df1a4fde98ee17ae345cb5f6b5e2c27f5033e8ce79697600092611cfd575b50508160011b916000199060031b1c19161790555b604051908152a1565b015190503880611cdf565b601f1982169583600052816000209660005b818110611d7c575096600192849260209796957ff8e1a15aba9398e019f0b49df1a4fde98ee17ae345cb5f6b5e2c27f5033e8ce7999a10611d63575b505050811b019055611cf4565b015160001960f88460031b161c19169055388080611d56565b83830151895560019098019760209384019301611d1a565b826000526020600020601f830160051c81019160208410611dd2575b601f0160051c01905b818110611dc65750611c9f565b60008155600101611db9565b9091508190611db0565b823b611dea575b5050505050565b604051630a85bd0160e11b81526001600160a01b039182166004820152918116602483015260448201939093526080606482015291169160209082908190611e36906084830190611034565b03816000865af18091600091611ec2575b5090611ea057503d15611e99573d611e5e8161114a565b90611e6c6040519283611110565b81523d6000602083013e5b80519081611e945782633250574960e11b60005260045260246000fd5b602001fd5b6060611e77565b6001600160e01b03191663757a42ff60e11b01611af457503880808080611de3565b6020813d602011611efd575b81611edb60209383611110565b81010312610a465751906001600160e01b0319821682036101fe575038611e47565b3d9150611ece565b611f0e816118dd565b506000526006602052604060002060405190816000825492611f2f84611274565b8084529360018116908115611faf5750600114611f68575b50611f5492500382611110565b6000604051611f64602082611110565b5290565b90506000929192526020600020906000915b818310611f93575050906020611f549282010138611f47565b6020919350806001915483858801015201910190918392611f7a565b905060209250611f5494915060ff191682840152151560051b82010138611f4756fea164736f6c634300081c000aa164736f6c634300081c000a",
  "linkReferences": {},
  "deployedLinkReferences": {}
}